:400000000080002011000000DD000000DD00000080B500AF024A034B1B68136000F062F8BC760040FA46004010B5054C237833B9044B13B10448AFF300800123237010BD03
:400040002081FF1F00000000401A0000084B10B51BB108480849AFF300800848036803B910BD074B002BFBD0BDE81040184700BF00000000401A00002481FF1F0881FF1F5D
:400080000000000080B582B000AF00F0F5FF00F015FC00F02BFC0020002100F0FDFF0E4801F030F8012000F031FC0346002B11D000F054FC0346FB80B7F90630002B01DA0F
:4000C0000023FB800120002100F0E6FFFB88184601F0B8F9E6E700BF441A000080B400AFFEE700BF80B586B000AF224B7B61224B3B61204B7B6135E03B691B68FB603B6969
:400100005B68BB603B699B683B6000237B600CE0FB681A68BB681A60BB680433BB60FB680433FB607B6804337B607A683B689A42EED13B69DB683B6000237B6008E0BB6829
:4001400000221A60BB680433BB607B6804337B607A683B689A42F2D13B6910333B617B69013B7B617B69002BC6D101F02FFCFFF789FFFEE701000000C81A000080B582B067
:4001800000AF174B174A1A60174A174B1B6843F40073136000237B600FE07B68032B04D8124A7B6852F8233000E0114B11497A6841F822307B6801337B607B682F2BECD943
:4001C0000D4B1B78DAB20D4B1A700D4B094A1A6000F086F90B4B00221A600837BD4680BD0CED00E00004FA0514ED00E000000000DD0000000080FF1FBC7600400481FF1F54
:4002000008ED00E00081FF1F80B582B000AF78603960786800213A6801F009FC0837BD4680BD00BF80B584B000AFF860B9607A60F868B9687A6801F0EFFB1037BD4680BDC4
:4002400080B483B000AF0346FB71FEE780B487B000AF7860396000233B6100237B6127E07B699B007A6813441B68BB60BB68FB73BB6823F0FF03BB6014E03B695B003A68AF
:4002800013441B781A46BB68134419463B695B003A6813445B780B703B6901333B61FB7B013BFB73FB7B002BE7D17B6901337B617B690C2BD4D91C37BD465DF8047B70474B
:4002C00080B582B000AF3C4B00221A803B4B50221A703B483B490422FFF7A4FF3A4B02221A704FF0402308221A70384B03221A70374B384A1278D2B21A70374B08221A80C0
:40030000364B41F251221A800023FB7019237B6014E0FB785B00DAB2314B1B78DBB203F00103DBB21343DBB203F00303FB704FF4F07001F095FA7B68013B7B607B68002B77
:4003400002D0FB78032BE4D17B68002B02D10320FFF776FF234B4FF480721A80214B07221A70214B00221A70204B48221A701D4B00221A701E4B02221A701E4B04221A70CF
:400380001D4A1D4B1B78DBB243F00103DBB213701A4A1A4B1B78DBB243F00103DBB21370174A174B1B78DBB263F07F03DBB213700837BD4680BD00BF8040004082400040CF
:4003C00000410040740000480043004000420040A146004008010049224200402042004025420040044000400640004008400040014000400B400040A2430040A14300406E
:40040000A043004080B483B000AF0E4B1B78FB710D4AFB7903F00703DBB213700B4AFB791B09DBB213700A4B01221A70094B10221A70094B44221A700C37BD465DF8047BE6
:40044000704700BFCF0100496E5800406F5800400D510040005B00407658004080B483B000AF0346FB71FB79012B0ED8FB79094A52F82330FA79074951F822201178FA799A
:400480000548825C0A43D2B21A700C37BD465DF8047B7047501A0000581A000080B483B000AF0346FB71FB79012B10D8FB790A4A52F82330FA79084951F822201178FA7906
:4004C0000648825CD243D2B20A40D2B21A700C37BD465DF8047B7047501A0000581A000080B582B000AF72B6384A384B1B78DBB243F00403DBB213700023FB7113E0FA7990
:4005000013465B0013445B00314A13443B603B681A683B689B889BB210461946FFF774FEFB790133FB71FB79082BE8D94FF090402849FFF78BFE284B0A221A70274A274B0C
:400540001B78DBB243F00203DBB21370244A244B1B78DBB243F00203DBB21370214A214B1B78DBB243F04003DBB213701E4A1E4B1B78DBB243F01003DBB213701B481C4942
:400580000822FFF74FFE1B481B490822FFF74AFE1A4A1A4B1B78DBB243F00803DBB21370174B00221A70FFF78BFE154B80221A70144B01221A70FFF725FF134809490E224C
:4005C000FFF730FE0837BD4680BD00BFE84600405C1A000034000048835800400350014013500140A0430040C24300400251004064000048225100406C0000482243004033
:400600000048004004000840B043004080B582B002AF414B01221A70404B00221A70102001F00CF8102001F0EFF81D20072101F0ABF93B4B04221A703A4B00221A703A4B18
:4006400000221A70394A394B1B78DBB243F01803DBB21370364B00221A70364B00221A70354B00221A70354B0A221A70344B00221A70344B00221A70334B12221A70334B7D
:4006800013221A70324B00221A70324B14221A7001230093022048F66B514FF40042082300F09EFB02230093002049F2DA014FF40042102300F094FB03230093002049F2D0
:4006C000DA014FF40042102300F08AFB04230093002049F2DA014FF40042102300F080FB1D4A0D4B1B78DBB2013B1C499B000B449B7813701A4A084B1B78DBB2013B17496C
:4007000031F823301380044B1B78DBB2184600F063F9BD4680BD00BF0C81FF1F3C81FF1F96580040975800409E580040075B004093580040885B0040895B0040805800404D
:40074000815800408358004088580040895800408D580040014E00400E4E00404081FF1F0C4E004080B582B000AF01F098F80346FB71444B1B78BB71434A434B1B78DBB266
:4007800043F00103DBB213703F4A3F4B1B78DBB243F01003DBB213703C4A3C4B1B78DBB243F00103DBB21370384A384B1B78DBB243F01003DBB21370354A354B1B78DBB25B
:4007C00043F00203DBB21370324A324B1B78DBB243F00203DBB213702F4A2F4B1B78DBB243F00303DBB21370032001F093F8284A274B1B78DBB223F00203DBB21370254ABA
:40080000244B1B78DBB223F00203DBB21370234A224B1B78DBB243F00603DBB21370204B7A221A701F4A1F4B1B78DBB243F00103DBB213701C4A1C4B1B78DBB243F00103CC
:40084000DBB21370194A194B1B78DBB243F00103DBB21370164A164B1B78DBB243F00103DBB21370134B4FF000521A60124B4FF000521A60FB79184601F015F80837BD462F
:4008800080BD00BF0C81FF1FAA430040BA430040F8460040F9460040915800407758004082580040A1430040B1430040A2430040B243004080E200E000E100E080B500AF3F
:4008C000084B1B78002B09D1074B1B78DBB2002B01D1FFF79BFE034B01221A70FFF742FF80BD00BF3E81FF1F3F81FF1F80B400AF054A054B1B78DBB243F00103DBB213703D
:40090000BD465DF8047B7047004E004080B485B000AF0346FB710E4B1B78DBB2002B03D00C4B1B78FB7305E00B4B1B78DBB203F00103FB73FB7B012B02D0FB79002BEAD072
:40094000FB7B18461437BD465DF8047B704700BF3D81FF1F3C81FF1F014E004080B483B000AF174B1B78DBB203F003037B717B79012B03D8134B1B88FB8011E0114B1B78F1
:40098000DBB2FB80104B1B78DBB29BB21B029AB2FB881343FB807B79032B01D10B4B1B780B4B1B78DBB2002B02D00A4B00221A70FB881BB218460C37BD465DF8047B7047DA
:4009C000144E0040104E0040114E0040124E00403D81FF1F3C81FF1F80B582B000AF0346FB71C24B00221A70FB79012B65D1C04B38221A70BF4B04221A70BF4B06221A7002
:400A0000BE4B00221A70BE4B00221A70BD4B0F221A70BD4B00221A70BC4B00221A70BC4B00221A70BB4B01221A70BB4B14221A70BA4B05221A70BA4B16221A70B94B002253
:400A40001A70B94B44221A70B84B48221A70B84B01221A70B74B02221A70B74B22221A70B64B28221A70B64BEB221A70522000F06DFAB44B58221A70B34B00221A70B34BF0
:400A800005221A70B24B02221A70B24B00221A70B14B00221A70002000F000FDAF4B33221A600220012100F00DFD0A20012100F0EFFD1D20AA4900F03FFFFB79022B66D117
:400AC0008B4B38221A708B4B04221A708A4B06221A708A4B00221A70894B00221A70894B3F221A70884B00221A70884B00221A70874B00221A70874B01221A70864B502231
:400B00001A70864B27221A70854B2C221A70854B00221A70844B55221A70844B5A221A70834B05221A70834B01221A70824B11221A70824B19221A70814B97221A70442035
:400B400000F004FA7F4B58221A707F4B00221A707E4B05221A707E4B02221A707D4B00221A707D4B00221A70002000F097FC7B4B4FF47A421A600820012100F0A3FC25206A
:400B8000012100F085FD1D20764900F0D5FEFB79032B66D1564B38221A70564B04221A70554B06221A70554B00221A70544B00221A70544B3F221A70534B00221A70534BD8
:400BC00000221A70524B00221A70524B01221A70514B50221A70514B27221A70504B2C221A70504B00221A704F4B55221A704F4B5A221A704E4B05221A704E4B01221A702A
:400C00004D4B11221A704D4B19221A704C4B97221A70442000F09AF94A4B58221A704A4B00221A70494B05221A70494B02221A70484B00221A70484B00221A70002000F052
:400C40002DFC464B4FF47A421A600820012100F039FC2520012100F01BFD1D20424900F06BFEFB79042B40F0A880214B38221A70204B04221A70204B06221A701F4B002233
:400C80001A701F4B00221A701E4B3F221A701E4B00221A701D4B00221A701D4B00221A701C4B01221A701C4B50221A701B4B27221A701B4B2C221A701A4B00221A701A4B9F
:400CC00055221A70194B5A221A70194B05221A70184B01221A70184B11221A70174B19221A70174B97221A7044203FE03D81FF1F004E0040024E0040034E0040044E0040D8
:400D0000054E0040064E0040084E0040094E00400A4E0040144E0040845800408558004086580040875800408A5800408B5800408C5800408E5800408F58004090580040D1
:400D40009158004094580040955800409A5800409B5800409C5800409D5800405481FF1FC50F0000D10F0000DD0F000000F0EEF8134B58221A70134B00221A70124B0522CA
:400D80001A70124B02221A70114B00221A70114B00221A70002000F081FB0F4B4FF47A421A600820012100F08DFB2520012100F06FFC1D20094900F0BFFD0837BD4680BDF1
:400DC00094580040955800409A5800409B5800409C5800409D5800405481FF1FE90F000090B587B000AF0446084611461A462346FB710346BB800B467B801346BB7197F8AE
:400E00002830002B00F08A8097F82830042B00F28580FB79013B092B4AD801A252F823F0490E0000B10E0000B10E0000490E0000B10E0000B10E0000630E00007D0E00007C
:400E4000B10E0000970E0000BB790F2B04D9364B1B78DBB2FB752EE0344B1B78DBB2FB7529E0BB790F2B04D9314B1B78DBB2FB7521E0304B1B78DBB2FB751CE0BB790F2BBF
:400E800004D92D4B1B78DBB2FB7514E02B4B1B78DBB2FB750FE0BB790F2B04D9284B1B78DBB2FB7507E0274B1B78DBB2FB7502E00023FB7500BFBA8897F917305B0113442D
:400EC0003B617B883A6902FB03F3FB60FB68DB0BBB82BB790D2B11D8BB8ABA79C2F10E021341BB8297F82830013BBA790132D1B2154A9B0013440A469A7007E097F8283036
:400F0000013B114A9B0013440F229A7097F82830013B0D49BA8A21F8232002E0002000F0CBFC1C37BD4690BD180100491C010049190100491D0100491A0100491E0100491A
:400F40001B0100491F0100494081FF1F80B584B000AF0346FB7100F0A2FC0346FB73164A154B1B78DBB243F00303DBB21370134A124B1B78DBB243F00303DBB21370104A0C
:400F8000FB791370032000F0C5FC0B4A0A4B1B78DBB223F00303DBB21370084A074B1B78DBB223F00303DBB21370FB7B184600F07AFC1037BD4680BDF8460040F9460040C8
:400FC0009258004080B400AFBD465DF8047B704780B400AFBD465DF8047B704780B400AFBD465DF8047B704780B400AFBD465DF8047B704780B500AF282000F069FC03205F
:4010000000F0D4F9052000F063FC032000F0CEF90F2000F05DFC032000F0C8F9012000F057FC022000F0C2F9052000F051FC062000F0AAF80E2000F0A7F82C2000F0A4F879
:40104000082000F0A1F8012000F09EF80C2000F09BF8032000F098F8052000F039FC80BD80B500AF0C2000F08FF8024B01221A7080BD00BF5081FF1F80B500AF054B1B780C
:40108000002B04D1FFF7B6FF024B01221A70FFF7E7FF80BD5181FF1F80B582B000AF03460A46FB711346BB71FB79032B26D801A252F823F0C5100000D3100000E110000099
:4010C000EF100000BB79803BDBB2184600F05CF815E0BB79403BDBB2184600F055F80EE0BB796C3BDBB2184600F04EF807E0BB792C3BDBB2184600F047F800E000BF0837A3
:40110000BD4680BD80B584B000AF78600123FB737B681B78BB730BE0BB7B184600F01AF8FB7B7A6813441B78BB73FB7B0133FB73BB7B002BF0D11037BD4680BD80B582B030
:4011400000AF0346FB71FB79184600F003F80837BD4680BD80B584B000AF0346FB7100F02DF8FB791B09FB73FB7B184600F0E2F8FB7903F00F03FB73FB7B184600F0DAF8CC
:401180001037BD4680BD00BF80B584B000AF0346FB7100F013F8FB791B09FB73FB7B184600F004F9FB7903F00F03FB73FB7B184600F0FCF81037BD4680BD00BF80B582B00E
:4011C00000AF4FF4CA737B60554A554B1B78DBB223F07F03DBB21370524B1B78DBB223F00F03FB704F4AFB7843F00F03DBB213704D4B1B78DBB223F00F03FB704A4AFB78E4
:4012000013704A4B1B78DBB223F00F03FB70474AFB781370424A424B1B78DBB223F02003DBB213703E4A3E4B1B78DBB243F04003DBB21370002000F06DFB394A384B1B7818
:40124000DBB243F01003DBB21370012000F062FB374B1B78FB70324A314B1B78DBB223F01003DBB21370002000F054FBFB7803F00803FB702A4A2A4B1B78DBB243F01003C5
:40128000DBB21370012000F045FB254A244B1B78DBB223F01003DBB21370FB78002B02D10A2000F037FB7B68013B7B60FB78002B02D07B68002BBDD1194A194B1B78DBB2EF
:4012C00023F04003DBB21370154A154B1B78DBB223F07F03DBB21370124A124B1B78DBB223F00F03DBB213700F4B1B78DBB223F00F03FB700C4AFB7843F00F03DBB21370CE
:401300000A4B1B78DBB223F00F03FB70074AFB7843F00F03DBB213700837BD4680BD00BF205100402251004023510040245100402151004080B582B000AF0346FB711A4AA3
:40134000194B1B78DBB243F02003DBB21370164A154B1B78DBB223F04003DBB21370002000F0D8FA104A104B1B78DBB223F00F03DBB213700C490C4B1B78DAB2FB791343BC
:40138000DBB243F01003DBB20B70012000F0C2FA054A054B1B78DBB223F01003DBB213700837BD4680BD00BF2051004080B582B000AF0346FB71144A134B1B78DBB223F0E7
:4013C0006003DBB21370104A0F4B1B78DBB223F00F03DBB213700C490B4B1B78DAB2FB791343DBB243F01003DBB20B70012000F091FA054A044B1B78DBB223F01003DBB2F5
:4014000013700837BD4680BD2051004080B582B000AF0346FB71FB791B09DBB21A46084B9B5C1846FFF78AFEFB7903F00F03044AD35C1846FFF782FE0837BD4680BD00BF7B
:40144000941A000080B582B000AF0346FB80FB881B0A9BB2DBB21846FFF7D8FFFB88DBB21846FFF7D3FF0837BD4680BD80B582B000AF0023FB7106E0FB791846FFF70EF829
:40148000FB790133FB71FB79012BF5D9024BFF221A700837BD4680BD0D81FF1F80B582B000AF0346FB71FFF7E1FFFB791846FEF7D5FF034AFB7913700837BD4680BD00BFC9
:4014C0000D81FF1F80B584B000AF03460A46FB8013467B7100F0CCF80346FB7300F0A2F80346BB81FA88BB899A4200F08780454B1B78DBB203F00103FB72FB7B002B20D116
:40150000BB89002B02D0FB88002B1AD1BB89002B0BD13D4AFB8813803C4A3C4B1B78DBB223F04003DBB2137068E0384A374B1B78DBB243F04003DBB21370334AFB881380D1
:401540005CE0FB7A002B33D0314B00221A70314B01221A70304B00221A70304A2F4B1B78DBB203F07F03DBB21370284B1B78DBB203F00803002B02D0FB88002B18D1284AE4
:40158000BB891380224B07221A7000BF204B1B78DBB203F00103002BF8D11A4A194B1B78DBB223F00103DBB21370194B00221A70144B1B78DBB203F00103002B13D0184AFA
:4015C000FB881380124A7B79002B01D0032300E00123137000BF0E4B1B78DBB203F00103002BF8D10AE0084AFB8813800549054B1B78DAB2FB7A1343DBB20B701037BD468D
:4016000080BD00BFA24300408040004082400040014000401040004014400040084000400240004080B400AF034B1B889BB21846BD465DF8047B70478040004080B483B064
:4016400000AF0346FB71094B084A1278D2B2D1B2FA7922F00702D2B20A43D2B2D2B21A700C37BD465DF8047B704700BF8240004080B400AF054B1B78DBB203F00703DBB26F
:401680001846BD465DF8047B704700BF8240004080B584B000AF03460A46FB8013467B7100F0CCF80346FB7300F0A2F80346BB81FA88BB899A4200F08780454B1B78DBB249
:4016C00003F00103FB72FB7B002B20D1BB89002B02D0FB88002B1AD1BB89002B0BD13D4AFB8813803C4A3C4B1B78DBB223F04003DBB2137068E0384A374B1B78DBB243F000
:401700004003DBB21370334AFB8813805CE0FB7A002B33D0314B00221A70314B01221A70304B00221A70304A2F4B1B78DBB203F07F03DBB21370284B1B78DBB203F0080342
:40174000002B02D0FB88002B18D1284ABB891380224B07221A7000BF204B1B78DBB203F00103002BF8D11A4A194B1B78DBB223F00103DBB21370194B00221A70144B1B7826
:40178000DBB203F00103002B13D0184AFB881380124A7B79002B01D0032300E00123137000BF0E4B1B78DBB203F00103002BF8D10AE0084AFB8813800549054B1B78DAB2F4
:4017C000FB7A1343DBB20B701037BD4680BD00BFA14300400041004002410040014000401440004010400040084000400240004080B400AF034B1B889BB21846BD465DF822
:40180000047B70470041004080B483B000AF0346FB71094B084A1278D2B2D1B2FA7922F00702D2B20A43D2B2D2B21A700C37BD465DF8047B704700BF0241004080B400AF08
:40184000054B1B78DBB203F00703DBB21846BD465DF8047B704700BF0241004000000000142816D902B4012114381049097811F0C001890904B40E4A515C04BC00BF00BFC8
:4018800000BF8841FDD500BF00BF02BC704700BF00BF70F10400FCD570470B050709EFF3108072B6704780F310887047004800409A180000AFF3008080B483B000AF034682
:4018C000FB7101BE0C37BD465DF8047B704700BF80B582B000AF786008E00C4B1B681846FFF7BEFF7B68A3F500437B607B68B3F5004FF2D8064B1B687A6802FB03F3184628
:40190000FFF7AEFF0837BD4680BD00BF1C81FF1F1481FF1F80B582B000AF0346FB80FB88044A127802FB03F31846FFF799FF0837BD4680BD1881FF1F80B584B000AF0346AD
:401940003960FB710F4B1B68FB60FB791F2B02D90020FFF7B1FFFB7903F01F0310339B00FA6813441B68BB60FB7903F01F0310339B00FA6813443A681A60BB681846103709
:40198000BD4680BD08ED00E080B582B000AF03460A46FB711346BB71BB79072B02D90020FFF78AFFFB791F2B02D90020FFF784FFFB7903F01F0303F1604303F56443BA796E
:4019C0005201D2B21A700837BD4680BD0E4B70B51E460E4C0025E41AA410A54204D056F8253098470135F8E700F05CF8084B094C1E46E41AA4100025A54204D056F825301D
:401A000098470135F8E770BDB01A0000B01A0000B01A0000B81A000010B5431E0A44914204D011F8014B03F8014FF8E710BD03460244934202D003F8011BFAE77047000009
:401A4000000000004144435F4F75747075740000035B00402443004040000000105100401000305100404000C05100401000F05100401000000001400010001401400008D7
:401A800000400140000A004C01400002005001402000000030313233343536373839414243444546F8B500BFF8BC08BC9E4670474D0000007D010000F8B500BFF8BC08BC8B
:401AC0009E46704729000000D81A00000881FF1F18000000400000000000000001FF000000366E01C05D0000180000000000E02E0000000000000000000000000000000049
:401B000000000000000000000000000000000000000000000000000000000000000000000000000000000000000000000000000000000000000000000000000000000000A5
:401B40000000000000000000000000000000000000000000000000000000000000000000000000000000000000000000000000000000000000000000000000000000000065
:401B80000000000000000000000000000000000000000000000000000000000000000000000000000000000000000000000000000000000000000000000000000000000025
:401BC00000000000000000000000000000000000000000000000000000000000000000000000000000000000000000000000000000000000000000000000000000000000E5
:020000040003F7
:0200000480007A
:4000000001090140040A0140010B014001150140011B0140024401400145014003460140034701400248014001490140014C0140024D0140B502B802BE01D804DF011D02C3
:40004000EC10EC107C01DE01940145089401D001A508B401EC082510C820B510A508B508EC0800000000000000000100007F7F00000000000A00180100000000000000002C
:400080000000000000000000000000000000000000000000000000000000000000000000000000000000000000000000000000000000000000000000000000000000000040
:4000C0000000000000000000000000000000000000000000000000000000000000000000000000000000000000000000000000000000000000000000000000000000000000
:4001000000000000000000000000000000000000000000000000000000000000000000000000000000000000000000000000000000000000000000000000000000000000BF
:40014000000000000000000000000000000000000000000000000000000000000000000000000000000000000000000000000000000000000000000000000000000000007F
:0200000490006A
:0400000000004005B7
:0200000490105A
:04000000BC90ACAF55
:0200000490303A
:02000000EC8A88
:0200000490402A
:4000000000000000000000000000000000000000000000000000000000000000000000000000000000000000000000000000000000000000000000000000000000000000C0
:400040000000000000000000000000000000000000000000000000000000000000000000000000000000000000000000000000000000000000000000000000000000000080
:400080000000000000000000000000000000000000000000000000000000000000000000000000000000000000000000000000000000000000000000000000000000000040
:4000C0000000000000000000000000000000000000000000000000000000000000000000000000000000000000000000000000000000000000000000000000000000000000
:0200000490501A
:0C00000000012E12306900012E1C1CF3C0
:00000001FF