:400000000080002011000000250300002503000008B5044B1A6803F53F5302331A6000F083F900BFFA46004008000223000008760800032300001076080004230000287621
:4000400008000523000030760500062300002070050007230000307005000823000060700500FE230000707010000A220000105140000B220000305110000C220000C0513D
:400080001000FE220000F05180030E220000000000080F220000000800041022000000188000112200000042800012220000004380041322000000448000142200000049A5
:4000C0000002FE220000004C070016230000005220001723000070642000FE2300007065080019230000005180001A230000000480001B230000800480001C23000000065F
:4001000080001D230000800680001E230000001480001F230000801480002023000000168000212300008016100022230000105010002323000000508000242300000015E4
:400140008000252300008015800026230000001780002723000080178000282300000007800029230000800780002A230000000580002B230000800580002C230000800345
:4001800080002D230000804980002E230000804880002F230000804380003023000080428000312300000041800032230000804180003323000000408000FE2300008040C1
:4001C0000100000000200040010000000020014001000000004800400100000000480140010000000100000010B5054C237833B9044B13B10448AFF300800123237010BD85
:400200002081FF1F0000000054110000084B10B51BB108480849AFF300800848036803B910BD074B002BFBD0BDE81040184700BF00000000541100002481FF1F0881FF1F85
:400240000000000010B562B600F0C2FE00F014FD00F03AFB112000F09FFA222000F03CFA332000F039FA442000F036FA552000F033FA662000F030FA772000F02DFA882027
:4002800000F02AFA992000F003FCAA2000F000FCBB2000F0FDFBCC2000F0FAFBDD2000F0F7FBEE2000F0F4FBFF2000F0F1FB122000F0EEFB00F0E0F9C307FBD5002001469C
:4002C00000F094FE154800F02AFE0120002100F08DFE082400F03CFC013C00F09DFE14F0FF04F7D14FF47A6000F0D2FE012000F022FE2146204600F079FE094800F00FFECF
:400300002146012000F072FE082400F04BFA013C00F082FE14F0FF04F7D1FEE75811000066110000FEE7000008B51148114AC8B1A2F1100132C9234604391E1BAE4204D022
:4003400051F8046F43F8046BF7E71D4652F8041C5C1B8C4203D0002443F8044BF8E701381032E4E700F0D0FEFFF76CFFFEE700BF010000008412000008B5114A114B1A6039
:40038000114A136843F4007313600023032B98BF0E4A4FEA830094BF52F823100C490D4A0133302B1150F1D10B4B19780B4B19700B4B1A6000F018F80A4B00221A6008BD14
:4003C0000004FA050CED00E014ED00E000000000250300000080FF1FBC7600400481FF1F08ED00E00081FF1F70B572B6744A102113784FF4CC7043F004031370714A002310
:400400001360714A032411700121A2F5BE6211705372A2F8F0076D4802F5FE62017044706B4CA0F5FF70A0F8004247F60804A0F802420380674B4FF480401880A3F2DD53B6
:40044000092018700D201874152083F84000182083F85000BFF35F8F153B1970BFF35F8F11461A460B889BB2002BFBD15A49D80001445A4830F823000133332B0880F5D1EB
:40048000BFF35F8F01231370BFF35F8F544B1B78D807FBD4534B1B78D907FBD4524B1B78DA07FBD4514B1B78DB07FBD4504B1C7814F00104FAD14F4A4F4D1378192643F0A0
:4004C00002031370137C43F0020313742B78A2F5863243F040032B70413A137843F010031370464B03CBC2F8400DC2F8441D03CB434BC2F8641DC2F8600DA4221A70414A3A
:400500000321137843F0080313703F4B0B221C70A3F5F0631A8018229A70022283F8802208224FF040231A7083F80012374B38491B78DBB20B70374B1A8041F2512223F8A0
:40054000022C354B4FF4F0701B7803F0010343EA440400F071FD013E04F003042FD0032CEFD12E4B4FF480721A802D4907221A70482000220A7088701A70022203F8032C60
:40058000284A294C137843F0010313701E4B80221A7003F5F723012204331A70234B244A1B78DBB203F007011B0911705370214B44221A7095E80F0007C4238070BDFEE7BD
:4005C000E84600404081FF1F007600400278004028000000067600400C78004074110000187000402870004038700040687000407870004003500140A0430040F00C00484E
:400600005B140140224300400048004008010049A146004022420040254200400440004006400040A2430040B0430040CF0100496E5800407658004008B500F01CFD0C4A6E
:400640001378A2F5807243F0200382F80031137843F010031370937843F01003937000F00EFD044B08221A6004221A6008BD00BF9465004000E100E010B5074B08221A60F6
:400680000649074B002418780B780C70054903F061030A60184310BD80E100E05181FF1F6464004000E100E010B5074B04221A600649074B002418780B780C70054903F069
:4006C00061030A60184310BD80E100E06381FF1F6664004000E100E070B5254A117801F0FF0311B1013BDBB200E00723214D29788B422B46F1D0204908240C601F49204C6E
:400700000E78217801F0610131432170167829788E4205D12178890702D51A4B187023E019780131C9B219701978072982BF114900240C701C7812780D4994420BD10A7812
:400740000132D2B20A700A78072A84BF00220A700D4A012111701B780C4ADBB2D0540C4A137843F0020313700A4B08221A6070BD5081FF1F5281FF1F80E100E06464004037
:400780005181FF1F446400404E81FF1F5B81FF1F8464004000E100E0014B1870704700BF04640040104B04221A60104B104A1978127891420FD00F4A117801F0FF0041B956
:4007C0001A780132D2B21A701A78072A03D9187001E0002111701B78074ADBB2D05C074B04221A60704700BF80E100E04C81FF1F4F81FF1F4D81FF1F5381FF1F00E100E0BE
:4008000008B50B4B1B781B0702D50A4B1B78F8E700F031FC084B1A7842F003021A701A7802F0FC021A70BDE8084000F028BC00BF66640040546400409464004070B5174B42
:40084000174E072408251C7016493560032000F03BFC2146032000F047FC042333601249022000F031FC2146022000F03DFCFFF7C7FF0E4B00241C700D4B1C700D4B1C70A1
:400880000D4B1C700D4B1C700D4B1C70FFF7F4FEFFF70AFF0B4B1C709D7070BD8465004080E100E0E5080000750900004D81FF1F4C81FF1F4F81FF1F4E81FF1F5081FF1F13
:4008C0005281FF1F8464004010B5054C23781BB9FFF7B4FF01232370BDE81040FFF7ACBE4881FF1F30B51B4B1B4A187811781C46884211460AD01948194A1578027802F0DB
:4009000061022A4302700278920709D422780B789A421DD1134A137803F0FD03137017E0114A117801F0FF0041B91A780132D2B21A701A78072A03D9187001E000211170FE
:400940001B780A4ADBB2D35C094ADBB21370CAE730BD00BF5081FF1F5281FF1F5181FF1F64640040846400404E81FF1F5B81FF1F4464004070B5184C184B21781A7802F03C
:4009800061020A431A701A78120723D5144A1578144AEDB211780131C9B211701178072984BF0021117010491678087886420BD108780130C0B208700878072884BF002065
:4009C00008700A490120087012780949D2B28D542178D3E770BD00BF666400406381FF1F546400404F81FF1F4C81FF1F4D81FF1F5381FF1F08B500F03EFB0B4A137843F05F
:400A000020031370537843F01003537012F8013C43F0100302F8013C00F031FB034B02221A6001221A6008BD9665004000E100E010B5074B02221A600649074B0024187808
:400A40000B780C70054903F009030A60184310BD80E100E06D81FF1F6765004000E100E010B5074B01221A600649074B002418780B780C70054903F040030A60184310BD60
:400A800080E100E07B81FF1F6565004000E100E070B5254A117801F0FF0311B1013BDBB200E00723214D29788B422B46F1D0204902240C601F49204C0E78217801F0090174
:400AC00031432170167829788E4205D12178490702D51A4B187023E019780131C9B219701978072982BF114900240C701C7812780D4994420BD10A780132D2B20A700A784E
:400B0000072A84BF00220A700D4A012111701B780C4ADBB2D0540C4A137843F0040313700A4B02221A6070BD7781FF1F7981FF1F80E100E0676500406D81FF1F46650040E1
:400B40007681FF1F6581FF1F8765004000E100E0104B01221A60104B104A1978127891420FD00F4A117801F0FF0041B91A780132D2B21A701A78072A03D9187001E000212D
:400B800011701B78074ADBB2D05C074B01221A60704700BF80E100E07A81FF1F7881FF1F6481FF1F6E81FF1F00E100E008B50B4B1B789B0602D50A4B1B78F8E700F05BFA46
:400BC000084B1A7842F001021A701A7802F0FE021A70BDE8084000F052BA00BF656500405665004096650040184B10B50F22184C1A70022323600120072100F075FA154966
:400C0000012000F061FA012323600020072100F06BFA1149002000F057FAFFF7C7FF0F4B00241C700E4B1C700E4B1C700E4B1C700E4B1C700E4B1C70FFF7FAFEFFF710FF17
:400C40000C4B20221C7003F8022C10BD8665004080E100E0950C0000250D00006481FF1F7A81FF1F7881FF1F7681FF1F7781FF1F7981FF1F8765004010B5054C23781BB9F3
:400C8000FFF7B2FF01232370BDE81040FFF7B2BE4981FF1F30B51B4B1B4A187811781C46884211460AD01948194A1578027802F009022A4302700278520709D422780B78F9
:400CC0009A421DD1134A137803F0FB03137017E0114A117801F0FF0041B91A780132D2B21A701A78072A03D9187001E0002111701B780A4ADBB2D35C094ADBB21370CAE7D5
:400D000030BD00BF7781FF1F7981FF1F6D81FF1F67650040876500407681FF1F6581FF1F4665004070B5184C184B21781A7802F040020A431A701A78920623D5144A157862
:400D4000144AEDB211780131C9B211701178072984BF0021117010491678087886420BD108780130C0B208700878072884BF002008700A490120087012780949D2B28D54C4
:400D80002178D3E770BD00BF656500407B81FF1F566500407881FF1F7A81FF1F6481FF1F6E81FF1F10B50B4C237803F09F032370237803F0F0032370237843F01003184366
:400DC0002070012000F078F9237803F0EF03237010BD00BF2051004038B505460E4C0020237843F020032370237803F0BF03237000F062F9237803F0F0032370207840F051
:400E0000100028432070012000F056F9237803F0EF03237038BD00BF205100402DE9F843334C344F2378344E03F08003DBB223703B78324D03F0F00343F00F033B70337816
:400E40004FF4CA7803F0F00333702B7803F0F0032B70237803F0DF032370237843F040032370002000F028F92378012043F01003237000F021F9224B002093F80090237886
:400E80005FFA89F903F0EF03237000F015F92378012043F01003237000F00EF9237819F0080F03F0EF03237003D10A2000F004F902E0B8F10108D4D1237803F0BF0323701B
:400EC000237803F08003DBB223703B7803F0F0033B70337803F0F00343F00F0333702B7803F0F00343F00F032B70BDE8F88300BF20510040225100402351004024510040EF
:400F00002151004010B50446FFF788FF2009FFF763FF04F00F00BDE81040FFF75DBF38B505460078012428B1FFF7ECFF285D0134E4B2F8E738BD10B50446FFF76FFF200999
:400F4000FFF730FF04F00F00BDE81040FFF72ABF08B5282000F09CF80320FFF723FF052000F096F80320FFF71DFF0F2000F090F80320FFF717FF012000F08AF80220FFF758
:400F800011FF052000F084F80620FFF7D4FF0E20FFF7D1FF2C20FFF7CEFF0820FFF7CBFF0120FFF7C8FF0C20FFF7C5FF0320FFF7C2FFBDE80840052000F06AB808B50C200B
:400FC000FFF7B9FF014B01221A7008BD4A81FF1F10B5054C63781BB9FFF7BAFF01236370BDE81040FFF7EABF4A81FF1F032811D8DFE800F00205080B81F0800008E0A1F164
:40100000400004E0A1F16C0001E0A1F12C00C0B2FFF791BF7047000038B50446054D0309E85C04F00F04FFF76DFF285DBDE83840FFF768BF40120000142816D902B401212A
:4010400014381049097811F0C001890904B40E4A515C04BC00BF00BF00BF8841FDD500BF00BF02BC704700BF00BF70F10400FCD570470B050709EFF3108072B6704780F35F
:40108000108870470048004072100000AFF3008010B50446B4F5004F064B05D91868FFF7CBFFA4F50044F5E758686043BDE81040FFF7C2BF0C81FF1F024B1B7A5843FFF799
:4010C000BBBF00BF0C81FF1F064B1F281A6800D901BE00F01F0000F1100352F8230042F82310704708ED00E0072900D901BE1F2800D901BE00F01F0000F16040490100F55B
:401100006440C9B2017070470E4B70B51E460E4C0025E41AA410A54204D056F8253098470135F8E700F094F8084B094C1E46E41AA4100025A54204D056F825309847013531
:40114000F8E770BD5C1200005C1200005C12000064120000000000005350494D20527820646174613A005350495320527820646174613A00C0010000C8010000D001000014
:40118000D8010000E0010000E0010000E0010000E00100004081FF1F4081FF1F4081FF1F4081FF1F4081FF1F4081FF1F4081FF1F4081FF1F4081FF1F4081FF1F4081FF1F3D
:4011C0004081FF1F000000481004004830040048080000481000004890000048100100489001004810020048900200481003004890030048500400486004004870040048D0
:40120000F004004870050048F005004870060048F006004870070048F007004870080048F008004870090048F0090048700A0048F00A0048700B0048F00B0048700C0048AE
:4012400030313233343536373839414243444546F8B500BFF8BC08BC9E4670470D02000079030000F8B500BFF8BC08BC9E467047E9010000881200000881FF1F1800000000
:401280006000000000000000000000000000E02EC05D00001800000000366E01000000000000000000000000000000000000000000000000000000000000000000000000E6
:4012C00000000000000000000000000000000000000000000000000000000000000000000000000000000000000000000000000000000000000000000000000000000000EE
:4013000000000000000000000000000000000000000000000000000000000000000000000000000000000000000000000000000000000000000000000000000000000000AD
:40134000000000000000000000000000000000000000000000000000000000000000000000000000000000000000000000000000000000000000000000000000000000006D
:40138000000000000000000000000000000000000000000000000000000000000000000000000000000000000000000000000000000000000000000000000000000000002D
:020000040003F7
:0200000480007A
:400000004119000000000000FF0000000000000000000000000400000000000000000000000000000000000000000204020100000000000000000003010000000000020054
:40004000020401010000000200000000000005050603600001CBEF0D1FFFFFFF2200F00C8C10000041000400040424040008000100000000000000004001C00100000000E5
:4000800000000000000000000000000000000000000300040005000A0100000000000000000E0000010400090000000000000000000000000000000000000000010000000C
:4000C000000000000000010F00800000000040000000000000000000000000000000000000000000000008000404000400000001000000000000000000000000000000001B
:400100000000000000000000000000000000000007063818000A041404000000000000000404001A0A12100C01000000600000000401000056000900040000000400000015
:40014000001E00007F00000120000002000000400000000000000000000000000000000000000000200004000404000400000001000000000000000000000000000000004E
:400180000000000000000000000000000000000000000000000000010000000000000000000001000000020000000100000000000100000001010000010000000000000036
:4001C00000000200010100000000000000001010000000000000000000000000000000000000000000000800040400040000000100000000000000000000000000000000C6
:400200000000000000000000000000000000000000000000010000000000020000000000001000010001000800010004000100020100001E01000001000000000000010077
:40024000020000000100001F000000000000104000000000000000000000000000000000000000000000022404040024088008010000000000000000000000000000000029
:400280000000000000000000000000000000000002020004001B0000001B0000001B00000000010000040010000003000004001A001B00000004030800000001001A000169
:4002C000030000000001001E0000008000000010000000000000000000000000000000000000000040000400040400040000000100000000000000000000000000000000FB
:40030000000000000000000000000000000000000033134400180002070210180C82000001180602009C0003110006000C1A0000041A080008C104380C000000001800000E
:400340000713100F08E00000000002280000140063042000050EFCBD3DFFFFFF2200F008040000000000022C04040404000000010000C00040011011C001001140014001BE
:40038000000000000000000000000000000000000000000000000000000000000000000000000000000000000000000000000000000000000000000000000000000000003D
:4003C00000000000000000000000000000000000000000000000000000000000000000000000000009000400000000040000000100000000000000000000000000000000EB
:4004000000000000000000000000000000000000000000000000000000000000000000000000000047007800000000000000000000000000000000000000000000000000FD
:400440000000000007000F000000000000000000010000000000000000000100000000000100000000000000000001000000000008000400000000400000000010004800BE
:40048000A20000000000000800210000000040000100000000204000000504001000008AAA000000000040080000000080021400000000000020080000000000000000007D
:4004C000000000000000000000000000000000000000000802001900AE008000000000000000000000000000800400000000000000000100000000000200000800004000DC
:40050000000414000100800080041048002000004001048EA8000000000080208000000000000000000002000000000000000000160050002D0000000000F3005F00F000B4
:400540000000000000000000F400000000000A00000000000000400000000000000010000000000000000000000000000000000000000000000001480000000010004A008A
:40058000000000000000001500000000002840000000000000050C48000000001000408000000000008000090000000000029400000000000021000800000000020808201B
:4005C0000000000000009009000900A000000000004002000002000000000000540016970000000040800100000000000000000000290080000000000000000040000400C6
:40060000000400002900C000004600008020054902000004A8050011000000005200040002000000000000000000000000000000D000D000700000000000D000D000F000DD
:40064000E000300000000F008900000000000000000000000000000000000000800000000000000000000000000000000000000000000000280000400800880800004422EC
:40068000A800000000000509001800000000040000000004000042000008000004210080000000000002020804000000000A0000000000000000000000000000000000005B
:4006C000000000000000000044100000000100002E00000011000084000000000000000000000000000000000100400000000000000000000000044000000000000000005D
:40070000000400080100000000440000A020004800000084000500100000000000000000000002000000000000000000000000007000FE00FE00000000008200C000C20055
:400740000000000000008E00FE0000000000000000000000000000000000000000002000000000000000000000000000000000000000000000000008208000000000002005
:4007800001200400000000400000400C0040000000880100000000012000000000000000208000000000000900040400000A0000010000080000000020204000000000005A
:4007C000002000840000000004104000000080000038020001004000000000000000000000000000000000008000000000000000000400000400410000000001000000003C
:40080000000000000000000000000000000000000010000000000000000000000000000000000000000000000000000000000000400023008300000000000200CC00C20032
:400840000A00040000001E00130000000000080000000000000020000000000000000000000000000000000000000000000000000010000000000000000000000000000001
:400880000000000000000000000000000000000000000000000000000000000000000000000000000000000000000000000000000000000000000000000000000000000038
:4008C00000000000000000000000000000000000000000000000000000000000000000000000000000000000000000000000000000000010000000000000000000000100E7
:400900000000000000000000000000000000011000000000000000000000000000000040000000000000002000000000000000000000000000000000000000000000000046
:400940000000000000000000000000000000000000002000000000000000000040000000000000000000000000000000000000000000000000000000000000000000000017
:4009800000000040000000000000000000000130000000000000000000000000000000000000080000000000000000000000000000000000000000000000000000000000BE
:4009C0000000000000000000000000000000000000000000000000000000000000000000000000000000000000000000000000000000000000000082000000000000000075
:400A0000000000400000000000000000000001B0000008000000000200000000000000000000000100000000000000000000000000000000000000000000000000000000BA
:400A400000000000000000000000000000000000000050000000000000000000000000000000000000000000000000000000000004000000800000000100000000000000A1
:400A8000080000400000000000000000810001B1000008000000000200000000000000000000000000000000000000000000000000000000000000000000000000000000B1
:400AC00000000000000000000000000000000000000000008000400000000000000000000000000000000000000000000000000000000800080000000000000020000040C6
:400B000000000000000000000000000000000000000000000000000000000000000000000000000000000000000000000000000000000000000000000000000000000000B5
:400B40000000000000000000800000000000008000000100010000000000000000000000000000000000000000000000000000002000000000000000000000000000000053
:400B80000000000000000000000000000000003100000000000000020000000000000000000000000000000000000000000000006000A00000000000000000000000000002
:400BC000000000008000A000400000000000000080000000000000000000000000000000000000000000000000000000000000000000000000000000000000000000000015
:400C00000000000000000000000000000000000000000000000000000000000000000000000000120000002100000000000000000000000000000000000000000000000081
:400C40000000000000000000000000000000000000000000000000000000000000000000000000000000000000000000000000000000000000000000000000000000000074
:400C8000000000000000000000000000000000000000000000000000000000000000000000000000000000000000000000000000000000000000000000000000F000000044
:400CC000000000000000000000000000000000000000000000000000000000000000000000000000000000000000000000000000A659590059000000007F7F000000000045
:400D000000000000000000000000000000000000000000000000000000000000000000000000000000000000000000000000000000000000000000000000000000000000B3
:400D40000000000000000000000000000000000000000000000000000000000000000000000000000000000000000000000000000000000000000000000000000000000073
:400D80000000000000000000000000000000000000000000000000000000000000000000000000000000000000000000000000000000000000000000000000000000000033
:400DC00000000000000000000000000000000000000000000000000000000000000000000000000000000000000000000000000000000000000000000000000000000000F3
:0200000490006A
:0400000000004005B7
:0200000490105A
:04000000BC90ACAF55
:0200000490303A
:02000000A92C29
:0200000490402A
:4000000000000000000000000000000000000000000000000000000000000000000000000000000000000000000000000000000000000000000000000000000000000000C0
:400040000000000000000000000000000000000000000000000000000000000000000000000000000000000000000000000000000000000000000000000000000000000080
:400080000000000000000000000000000000000000000000000000000000000000000000000000000000000000000000000000000000000000000000000000000000000040
:4000C0000000000000000000000000000000000000000000000000000000000000000000000000000000000000000000000000000000000000000000000000000000000000
:0200000490501A
:0C00000000012E12306900012E18D99565
:00000001FF