:1000000002068F008F828E83E0540100000070F89A
:100010002278FFE4F6D8FD0206EDBB010689828A4C
:1000200083E0225002E722BBFE02E32289828A8318
:10003000E49322BB010689828A83F0225002F722D0
:10004000BBFE01F322E88FF0A4CC8BF0A42CFCE9DA
:100050008EF0A42CFC8AF0EDA42CFCEA8EF0A4CD4A
:10006000A8F08BF0A42DCC3825F0FDE98FF0A42C5E
:10007000CD35F0FCEB8EF0A4FEA9F0EB8FF0A4CF11
:10008000C5F02ECD39FEE43CFCEAA42DCE35F0FDC2
:10009000E43CFC2275F008758200EF2FFFEE33FE82
:1000A000CD33CDCC33CCC58233C5829BED9AEC9950
:1000B000E58298400CF582EE9BFEED9AFDEC99FCF2
:1000C0000FD5F0D6E4CEFBE4CDFAE4CCF9A8822239
:1000D000B800C1B90059BA002DEC8BF084CFCECD59
:1000E000FCE5F0CBF97818EF2FFFEE33FEED33FD92
:1000F000EC33FCEB33FB10D703994004EB99FB0F77
:10010000D8E5E4F9FA227818EF2FFFEE33FEED334D
:10011000FDEC33FCC933C910D7059BE99A4007ECC5
:100120009BFCE99AF90FD8E0E4C9FAE4CCFB22750C
:10013000F010EF2FFFEE33FEED33FDCC33CCC833A0
:10014000C810D7079BEC9AE899400AED9BFDEC9A02
:10015000FCE899F80FD5F0DAE4CDFBE4CCFAE4C87A
:10016000F922EB9FF5F0EA9E42F0E99D42F0E89C0F
:1001700045F022E8600FECC313FCED13FDEE13FE17
:10018000EF13FFD8F122E8600FEFC333FFEE33FE29
:10019000ED33FDEC33FCD8F122BB010789828A8361
:1001A0000202625005E9F8020256BBFE05E9F802B8
:1001B000026E89828A8302027ABB010789828A835E
:1001C0000201D35005E9F802028ABBFE05E9F802F4
:1001D000029622ECF0A3EDF0A3EEF0A3EFF022D014
:1001E00083D082F8E4937012740193700DA3A393EB
:1001F000F8740193F5828883E4737402936860EF66
:10020000A3A3A380DFE50C2582F582E50B3583F5FA
:1002100083B50B0485820C2210AF0685820CF50B8A
:100220002285820CF50BD2AF22EC8EF0A4CCC5F067
:10023000CCCDF8EFA4CEC5F02DFDE43CFCE8A42E17
:10024000C8C5F03DFDE43CFCEFA4FFE5F028FEE46A
:100250003DFDE43CFC22E6FC08E6FD08E6FE08E67F
:10026000FF22E0FCA3E0FDA3E0FEA3E0FF22E2FC0E
:1002700008E2FD08E2FE08E2FF22E493FC74019329
:10028000FD740293FE740393FF22ECF608EDF6086A
:10029000EEF608EFF622ECF208EDF208EEF208EFC7
:1002A000F2227F947E017D007C009000CC1201D36D
:1002B000905120E0FFEF5480FFEFF0905122E0FFDB
:1002C000EF54F0FF9000CBEFF09000CBE0FFEF4455
:1002D0000FFF905122EFF0905123E0FFEF54F0FF19
:1002E0009000CBEFF09000CBE0FF905123EFF09027
:1002F0005124E0FFEF54F0FF9000CBEFF09000CBE3
:10030000E0FF905124EFF0905120E0FFEF54DFFF29
:10031000EFF0905120E0FFEF4440FFEFF07F007ED0
:1003200000120BE0905120E0FFEF4410FFEFF07F50
:10033000017E00120BE0905121E0FF9000CBEFF026
:10034000905120E0FFEF54EFFFEFF07F007E0012AE
:100350000BE09000CBE0FFEF5408FF9000CBEFF0F4
:10036000905120E0FFEF4410FFEFF07F017E00127C
:100370000BE0905120E0FFEF54EFFFEFF09000CB47
:10038000E0FFEF70077F0A7E00120BE09000CCE0E8
:10039000FCA3E0FDA3E0FEA3E0FF7BFF7AFF79FF73
:1003A00078FFEF2BFFEE3AFEED39FDEC38FC9000C4
:1003B000CC1201D39000CBE0FFEF601A9000CCE0AC
:1003C000FCA3E0FDA3E0FEA3E0FFD3EF9400EE94D6
:1003D00000400302031D905120E0FFEF54BFFFEFE8
:1003E000F0905120E0FFEF5480FFEFF0905122E0B9
:1003F000FFEF54F0FFEFF0905123E0FFEF54F0FFD8
:100400009000CBEFF09000CBE0FFEF440FFF905156
:1004100023EFF0905124E0FFEF54F0FF9000CBEF7A
:10042000F09000CBE0FFEF440FFF905124EFF0225B
:100430007B007A4679E8120D11EF4405FD7B007AC6
:100440004679E8120D1D750A00E50AC3940A504268
:10045000AF0AEF75F005A42497F582E4340DF58317
:10046000AF82AE838E088F09AE08AF098F828E836C
:10047000E493FB740193FA740293F9AE08AF098F09
:10048000828E83740393FC740493FD120C55050A49
:1004900080B77E0D7F39120BAF7B017A5079031242
:1004A0000D11EF4402FD7B017A507903120D1D7B83
:1004B000017A507913120D11EF4402FD7B017A503D
:1004C0007913120D1D9043A0E0FFEF4440FF9043CD
:1004D000A0EFF09043C2E0FFEF4410FF9043C2EF63
:1004E000F07C0D7D297B007A5179227F087E0012F5
:1004F0000C0D7C0D7D317B007A5179627F087E0086
:10050000120C0D904322E0FFEF4408FF904322EFCE
:10051000F09046ECE0FFEFC39405500690468974D6
:100520003AF090480074C0F012056A904800748058
:10053000F0120AB87B007A4379A0C003C002C00160
:100540007B007A4379B090009BEBF0A3EAF0A3E93B
:10055000F0D001D002D0037F0E7E00120B4B9043EF
:10056000B0E0FFEF54FDFFEFF0227B007A4079808E
:100570007D037C00120CEA904082741BF0904300D3
:100580007402F09040007408F09042007403F07B15
:100590000C7A017908120D119046A1EFF07B007AD8
:1005A0004279227D087C00120CEA7B007A42792095
:1005B0007D517C12120CEA9000D9E4F07F197E0084
:1005C0007D007C009000D51201D39000D5E0FCA303
:1005D000E0FDA3E0FEA3E0FFD3EF9400EE94004023
:1005E0005F9000D9E0FFEF64036055904225E0FF83
:1005F000EF5401FF7E009000D9E0FEEE25E0FEEE14
:100600004FFFEF5403FF9000D9EFF07FE07E017DB4
:10061000007C00120B009000D5E0FCA3E0FDA3E0FD
:10062000FEA3E0FF7BFF7AFF79FF78FFEF2BFFEE61
:100630003AFEED39FDEC38FC9000D51201D3808AEA
:100640009000D5E0FCA3E0FDA3E0FEA3E0FFEF4EA9
:1006500070057F03120CC87B007A4079047D007C12
:1006600001120CEA9040047407F0904006E4F09008
:1006700040087448F0904004E4F09040017402F0A7
:100680009043A2E0FFEF4401FF9043A2EFF02275F8
:10069000930078007583467582E8E04401F000908D
:1006A00046ECE0F99046FAE0FAB903225420B4008F
:1006B00012B8001AEA901FFFF07401901FFEF0902C
:1006C00046F6F0901FFEE06005901FFFE0FA9048AC
:1006D0000074C0F075810C90000078007920E4F07F
:1006E000A3D8FCD9FAEA90005EF0020011750B1F46
:1006F000750CFD1209B5120430020737020AEEE448
:1007000093A3F8E493A34003F68001F208DFF4809A
:1007100029E493A3F85407240CC8C333C4540F44EA
:1007200020C8834004F456800146F6DFE4800B01C4
:1007300002040810204080900B7FE47E019360BC8F
:10074000A3FF543F30E509541FFEE493A360010E5C
:10075000CF54C025E060A840B8E493A3FAE493A383
:10076000F8E493A3C8C582C8CAC583CAF0A3C8C5A4
:1007700082C8CAC583CADFE9DEE780BE90FFFC12EB
:1007800002051201D3850B83850C82E0FCA3E0FDFA
:10079000A3E0FEA3E0FFD3EF9400EE9480403F90EF
:1007A000005FE0FCA3E0FDA3E0FEA3E0FF120B006E
:1007B000850B83850C82C083C082E0FCA3E0FDA38F
:1007C000E0FEA3E0FFEF2400FFEE3480FEED34FFF7
:1007D000FDEC34FFFCD082D0831201D380A79000BF
:1007E00055E0FCA3E0FDA3E0FEA3E0FF850B8385BD
:1007F0000C82E0F8A3E0F9A3E0FAA3E0FB120045C5
:10080000120B00900004120205227F287E007D005A
:100810007C0012077C7F03120A037F057E007D00A7
:100820007C0012077C7F03120A037F0F7E007D008D
:100830007C0012077C7F03120A037F017E007D008B
:100840007C0012077C7F02120A037F057E007D0078
:100850007C0012077C7F06120A827F0E120A827FBA
:100860002C120A827F08120A827F01120A827F0CF0
:10087000120A827F03120A827F057E007D007C00BF
:1008800012077C22904F00E0FFEF4402FFEFF09050
:100890004F02E0FFEF548FFF900152EFF0900152B2
:1008A000E0FFEF4410FF904F02EFF0904F0BE0FF9E
:1008B000EF54CFFFEFF0904F0BE0FFEF4430FFEF2E
:1008C000F0904F0BE0FFEF54F0FFEFF0904F0BE094
:1008D000FFEF440FFFEFF07FFF120C6E7F7F120CD3
:1008E000867F00120CDA9043A3E0FFEF4401FFEF94
:1008F000F0904F01E0FFEF4401FFEFF0229000C6BF
:10090000EBF0A3EAF0A3E9F09000C97401F09000C5
:10091000C6E0FBA3E0FAA3E0F912001AFF9000CAB8
:10092000EFF09000CAE0FFEF602F9000CAE0FF12E6
:100930000A4C9000C6E0FBA3E0FAA3E0F99000C9DE
:10094000E0FFE92FF9E43AFA12001AFF9000CAEF2B
:10095000F09000C9E004F080C92290014FEFF090C0
:100960005120E0FFEF4420FFEFF0905120E0FFEF37
:1009700054BFFFEFF07F007E00120BE0905120E0AB
:10098000FFEF54F0FFEFF0905120C083C082E0FFF2
:1009900090014FE0FEEE4410FEEF4EFFD082D08378
:1009A000EFF07F017E00120BE0905120E0FFEF544A
:1009B000EFFFEFF022900166E4F0900166E0FFEFB8
:1009C000D3941F503D900166E0FF7E02EF8EF0A4AD
:1009D000FFAEF0EF2400FFEE3444FEAA06A9077B29
:1009E00001C003C002C0017BFF7A0B79DDAC02AD10
:1009F00001D001D002D003120CEC900166E004F0AB
:100A000080B822900150EFF0905120E0FFEF549F0A
:100A1000FFEFF0905120E0FFEF54F0FFEFF0905126
:100A200020C083C082E0FF900150E0FEEE4410FE43
:100A3000EF4EFFD082D083EFF07F017E00120BE0FB
:100A4000905120E0FFEF54EFFFEFF02290012CEFE8
:100A5000F01202A290012CE0FFEFC4540FFF9001AE
:100A60002DEFF090012DE0FF12095A90012CE0FFCC
:100A7000EF540FFF90012DEFF090012DE0FF1209D0
:100A80005A2290012EEFF01202A290012EE0FFEF09
:100A9000C4540FFF90012FEFF090012FE0FF120AD6
:100AA0000390012EE0FFEF540FFF90012FEFF09025
:100AB000012FE0FF120A03227B0C7A0179CF120D7D
:100AC0001190015AEFF090015AE0FFEF5407FF90A8
:100AD000586EEFF090015AE0FFEFC4540FFFEF544F
:100AE0000FFF90586FEFF09058767444F022120C7C
:100AF0009E120CB37BFF7A0C79F91208FD80FE225E
:100B0000EC4D4E700D78FCEF24E950032840FD2297
:100B1000000078C5904800E0C403035403900B47DD
:100B20009325E0240FF404FBEF28FF78FFEE38FE56
:100B3000ED38FDEC38FC50D7EF2BFFEE38FEED38EA
:100B4000FDEC38FC40F22205020304758600EF4EEE
:100B50006027EF60010E75930090009BE0F595A370
:100B6000E0F585A3E0F5848B938A838982E0A30571
:100B700086F0A31586DFF6DEF4E4F593F5952241C1
:100B8000013200410133004101580044005A016E16
:100B9000360044005500005DC04100591844005F14
:100BA0002EE000004300F80000004101750000AC99
:100BB000EAADA08E838F82E493F9601CA3E493F5E1
:100BC000EAA3E493F5A0A3E49360F1FAA3E493F815
:100BD000A3E493F2DAF6D9E48DA08CEA2280FE3207
:100BE000EEFA900059E0F88FF0A4FFAEF0E88AF03A
:100BF000A42EFEE5F03400FDEF24C9FF78FFEE38A7
:100C0000FEED38FDE438FC5003020B00227586002F
:100C1000EF4E601BEF60010E8C838D828B958A8571
:100C20008984E493A30586F0A31586DFF5DEF3E45B
:100C3000F595229043A3E0FFEF4401FFEFF09043CE
:100C4000B3E0FFEF4401FFEFF0904F00E0FFEF440F
:100C500001FFEFF022EC4D6011ED60010C8B938AE7
:100C6000838982E4F0A3DDFCDCFA75930022900115
:100C700053EFF07B027A4F7904900153E0FFEFFDD0
:100C80007C00120CEC22900154EFF07B027A4F7939
:100C900006900154E0FFEFFD7C00120CEC22900165
:100CA00033E0FFEF700912080A9001337401F0126B
:100CB0000D0522900158E0FFEF70091208849001A1
:100CC000587401F0120C3322900159EFF090015941
:100CD000E0FF900159EFF080FE22900155EFF09077
:100CE0000155E0FF904F03EFF0228B938A838982B6
:100CF000EDF0A3ECF07593002248656C6C6F205703
:100D00006F726C64007F0C120A829001327401F0E1
:100D1000228B938A838982E0759300FF228B938ACA
:100D2000838982EDF075930022007F7F0000000030
:100D30000000080800080000000F004F010A4B01E6
:100D40000701EE08010901AF20010A04B820BE1016
:100D5000D804DF01010B011F20011701E810011960
:100D600001E8100142026302D6400143041810AFAB
:100D700001C610EE100144025004D4040145019450
:100D80000801460194080147019408014801B41084
:100D9000014C02B404E808004F00000C00510000B0
:100DA0002000513000300051C000100051F0001000
:100DB000010000100001140008000140000A0001B9
:090DC0004C00020001500000206B
:00000001FF
