:400000000080002011000000CD020000CD02000008B5044B1A6803F53F5302331A6000F057F900BFFA460040080002230000087608000323000010760800042300002876FF
:4000400008000523000030760500062300002070050007230000307005000823000060700500FE230000707010000A220000105140000B220000305110000C220000C0513D
:400080001000FE220000F05180030E220000000000080F220000000880001022000000140004112200000018800012220000004280001322000000438004142200000044DA
:4000C00080001522000000490002FE220000004C070017230000005220001823000070642000FE230000706508001A230000005180001B230000000480001C23000080041F
:4001000080001D230000000680001E230000800680001F230000801480002023000000168000212300008016100022230000105010002323000000508000242300000015F2
:400140008000252300008015800026230000001780002723000080178000282300000007800029230000800780002A230000000580002B230000800580002C230000800345
:4001800080002D230000804980002E230000804880002F230000804380003023000080428000312300000041800032230000804180003323000000408000FE2300008040C1
:4001C0000100000000200040010000000020014001000000004800400100000000480140010000000100000010B5054C237833B9044B13B10448AFF300800123237010BD85
:400200002081FF1F00000000DC0C0000084B10B51BB108480849AFF300800848036803B910BD074B002BFBD0BDE81040184700BF00000000DC0C00002481FF1F0881FF1F7F
:400240000000000010B50446112000F011FA204600F00EFA0120002100F08AFC2046BDE8104000F09BBC000010B562B600F072FC00F0C4FA012000F020FC0020014600F01E
:4002800077FC114800F00DFC0120002100F070FC0024E0B2FFF7D6FF0134642000F0BCFCFF2CF6D14FF4FA6000F0B6FCE0B2FFF7C9FF642000F0B0FC013CF7D14FF4FA60B6
:4002C00000F0AAFCE4E700BFE00C0000FEE7000008B51148114AC8B1A2F1100132C9234604391E1BAE4204D051F8046F43F8046BF7E71D4652F8041C5C1B8C4203D0002494
:4003000043F8044BF8E701381032E4E700F0C0FCFFF7AAFFFEE700BF01000000F80D000008B5114A114B1A60114A136843F4007313600023032B98BF0E4A4FEA830094BF29
:4003400052F823100C490D4A0133302B1150F1D10B4B19780B4B19700B4B1A6000F018F80A4B00221A6008BD0004FA050CED00E014ED00E000000000CD0200000080FF1F2C
:40038000BC7600400481FF1F08ED00E00081FF1F70B572B6734A102113784FF4CC7043F004031370704A00231360704A032411700121A2F5BE6211705372A2F8F0076C489C
:4003C00002F5FE62017044706A4CA0F5FF70A0F8004247F60804A0F802420380664B4FF480401880A3F2DD53092018700D201874162083F84000192083F85000BFF35F8F35
:40040000153B1970BFF35F8F11461A460B889BB2002BFBD15949D8000144594830F823000133332B0880F5D1BFF35F8F01231370BFF35F8F534B1B78D807FBD4524B1B7834
:40044000D907FBD4514B1B78DA07FBD4504B1B78DB07FBD44F4B1C7814F00104FAD14E4A4E4D1378192643F002031370137C43F0020313742B78A2F5863243F040032B7004
:40048000413A137843F010031370454B03CBC2F8400DC2F8441D03CBC2F8641DC2F8600DA03A1378032143F0080313703D4B0B221C70A3F5F0631A8018229A70022283F8CA
:4004C000802208224FF040231A7083F80012364B36491B78DBB20B70354B1A8041F2512223F8022C334B4FF4F0701B7803F0010343EA440400F064FB013E04F003042FD02B
:40050000032CEFD12C4B4FF480721A802B4907221A70482000220A7088701A70022203F8032C274A274C137843F0010313701D4B80221A7003F5F723012204331A70224B6B
:40054000224A1B78DBB203F007011B09117053701F4B44221A7095E80F0007C4238070BDFEE700BFE84600404081FF1F007600400278004028000000067600400C78004002
:40058000E80C0000187000402870004038700040687000407870004003500140A0430040700C00480048004008010049A146004022420040254200400440004006400040AE
:4005C000A2430040B0430040CF0100496E5800407658004008B500F012FB0B4A137843F02003137012F8013C43F0100302F8013C537843F01003537000F005FB034B022209
:400600001A6001221A6008BD9665004000E100E010B5074B02221A600649074B002418780B780C70054903F009030A60184310BD80E100E05481FF1F6565004000E100E0FB
:4006400010B5074B01221A600649074B002418780B780C70054903F040030A60184310BD80E100E06281FF1F6765004000E100E070B5254A117801F0FF0311B1013BDBB2B2
:4006800000E00723214D29788B422B46F1D0204902240C601F49204C0E78217801F0090131432170167829788E4205D12178490702D51A4B187023E019780131C9B21970E8
:4006C0001978072982BF114900240C701C7812780D4994420BD10A780132D2B20A700A78072A84BF00220A700D4A012111701B780C4ADBB2D0540C4A137843F00403137061
:400700000A4B02221A6070BD5E81FF1F6081FF1F80E100E0656500405481FF1F466500405D81FF1F4C81FF1F8565004000E100E008B50B4B1B789B0602D50A4B1B78F8E7BD
:4007400000F05DFA084B1A7842F001021A701A7802F0FE021A70BDE8084000F054BA00BF676500405665004096650040184B10B50F22184C1A70022323600120072100F06C
:4007800077FA1549012000F063FA012323600020072100F06DFA1149002000F059FAFFF7C7FF0F4B00241C700E4B1C700E4B1C700E4B1C700E4B1C700E4B1C70FFF728FF9D
:4007C000FFF73EFF0C4B20221C709A7010BD00BF8665004080E100E019080000A90800004B81FF1F6181FF1F5F81FF1F5D81FF1F5E81FF1F6081FF1F8565004010B5054CAD
:4008000023781BB9FFF7B2FF01232370BDE81040FFF7E0BE4881FF1F30B51B4B1B4A187811781C46884211460AD01948194A1578027802F009022A4302700278520709D4FE
:4008400022780B789A421DD1134A137803F0FB03137017E0114A117801F0FF0041B91A780132D2B21A701A78072A03D9187001E0002111701B780A4ADBB2D35C094ADBB270
:400880001370CAE730BD00BF5E81FF1F6081FF1F5481FF1F65650040856500405D81FF1F4C81FF1F4665004070B5184C184B21781A7802F040020A431A701A78920623D51F
:4008C000144A1578144AEDB211780131C9B211701178072984BF0021117010491678087886420BD108780130C0B208700878072884BF002008700A490120087012780949C3
:40090000D2B28D542178D3E770BD00BF676500406281FF1F566500405F81FF1F6181FF1F4B81FF1F5581FF1F10B50B4C237803F09F032370237803F0F0032370237843F06E
:40094000100318432070012000F07AF9237803F0EF03237010BD00BF2051004038B505460E4C0020237843F020032370237803F0BF03237000F064F9237803F0F00323702B
:40098000207840F0100028432070012000F058F9237803F0EF03237038BD00BF205100402DE9F843334C344F2378344E03F08003DBB223703B78324D03F0F00343F00F0327
:4009C0003B7033784FF4CA7803F0F00333702B7803F0F0032B70237803F0DF032370237843F040032370002000F02AF92378012043F01003237000F023F9224B002093F8DC
:400A0000009023785FFA89F903F0EF03237000F017F92378012043F01003237000F010F9237819F0080F03F0EF03237003D10A2000F006F902E0B8F10108D4D1237803F0C3
:400A4000BF032370237803F08003DBB223703B7803F0F0033B70337803F0F00343F00F0333702B7803F0F00343F00F032B70BDE8F88300BF205100402251004023510040D3
:400A8000245100402151004010B50446FFF788FF2009FFF763FF04F00F00BDE81040FFF75DBF38B505460078012428B1FFF7ECFF285D0134E4B2F8E738BD10B50446FFF700
:400AC0006FFF2009FFF730FF04F00F00BDE81040FFF72ABF08B5282000F09EF80320FFF723FF052000F098F80320FFF71DFF0F2000F092F80320FFF717FF012000F08CF856
:400B00000220FFF711FF052000F086F80620FFF7D4FF0E20FFF7D1FF2C20FFF7CEFF0820FFF7CBFF0120FFF7C8FF0C20FFF7C5FF0320FFF7C2FFBDE80840052000F06CB85C
:400B400008B50C20FFF7B9FF014B01221A7008BD4981FF1F10B5054C63781BB9FFF7BAFF01236370BDE81040FFF7EABF4981FF1F032811D8DFE800F00205080B81F080007B
:400B800008E0A1F1400004E0A1F16C0001E0A1F12C00C0B2FFF791BF7047000038B50446054D0309E85C04F00F04FFF76DFF285DBDE83840FFF768BFB40D000000000000C9
:400BC000142816D902B4012114381049097811F0C001890904B40E4A515C04BC00BF00BF00BF8841FDD500BF00BF02BC704700BF00BF70F10400FCD570470B050709EFF3C3
:400C0000108072B6704780F31088704700480040FA0B0000AFF3008010B50446B4F5004F064B05D91868FFF7CBFFA4F50044F5E758686043BDE81040FFF7C2BF0C81FF1F2B
:400C4000024B1B7A5843FFF7BBBF00BF0C81FF1F064B1F281A6800D901BE00F01F0000F1100352F8230042F82310704708ED00E0072900D901BE1F2800D901BE00F01F003C
:400C800000F16040490100F56440C9B2017070470E4B70B51E460E4C0025E41AA410A54204D056F8253098470135F8E700F08AF8084B094C1E46E41AA4100025A54204D0A8
:400CC00056F8253098470135F8E770BDD00D0000D00D0000D00D0000D80D00000000000076616C75653A0000C0010000C8010000D0010000D8010000E0010000E001000067
:400D0000E0010000E00100004081FF1F4081FF1F4081FF1F4081FF1F4081FF1F4081FF1F4081FF1F4081FF1F4081FF1F4081FF1F4081FF1F4081FF1F4081FF1F0000004856
:400D400090030048B00300480800004810000048900000481001004890010048100200489002004810030048D0030048E0030048F003004870040048F00400487005004826
:400D8000F005004870060048F006004870070048F007004870080048F008004870090048F0090048700A0048F00A0048700B0048F00B004830313233343536373839414260
:400DC00043444546F8B500BFF8BC08BC9E4670470D02000021030000F8B500BFF8BC08BC9E467047E9010000F80D00000881FF1F1800000048000000000000000000E02EAC
:400E0000C05D00001800000000366E0100000000000000000000000000000000000000000000000000000000000000000000000000000000000000000000000000000000D8
:400E40000000000000000000000000000000000000000000000000000000000000000000000000000000000000000000000000000000000000000000000000000000000072
:400E80000000000000000000000000000000000000000000000000000000000000000000000000000000000000000000000000000000000000000000000000000000000032
:400EC00000000000000000000000000000000000000000000000000000000000000000000000000000000000000000000000000000000000000000000000000000000000F2
:400F000000000000000000000000000000000000000000000000000000000000000000000000000000000000000000000000000000000000000000000000000000000000B1
:020000040003F7
:0200000480007A
:400000004111000000000000FF00000000000000000000000000000000000002012000020000003C00020010000200080002000400000001000000000000000000010000EA
:40004000010000000001003E00000000000001500204200001FEDB0C1FFFFFFF2200F00C8C10000000000800040424040008001100000000000000004001C00100000000BA
:40008000000000000000000000000000000000000001000000000000000000000000000001000000000003000000000000000000000000000000000000000000000000003B
:4000C00002010100000000000000000000000401000000000000000000000000000000000000000020000400040400040000000100000000000000000000000000000000C6
:4001000000000000000000000000000000000000000600090000000000000000000000000000000300300000002A0014000000000000000000000004001D002200000000FC
:4001400000000000003800070020000000000000000000000000000000000000000000000000000041000400000400040000000100000000000000000000000000000000D2
:40018000000000000000000000000000000000000000000001000000000100000000000400000100000400000004000000040100020000030200000002000004000002001C
:4001C0000100000402020001000000000000114400000000000000000000000000000000000000000000022C040400240080081100000000000000000000000000000000AD
:400200000000000000000000000000000000000010020008000D000023001400000D100000000000230D0C0002021D041002000D210D1A001000000010010002000D00004B
:40024000000000001F00200F000020800000400000000000000000000000000000000000000000000900040004040004000000010000000000000000000000000000000036
:400280000000000000000000000000000000000072720008004D000081007400224050202240000D630D8C400020004A724D00002300D80150002200720A0010004D000023
:4002C000807860021F040001200800030000015024036000050EBCDF3DFFFFFF2200F00C040000000000022804040404000000010000C00040011011C001001140014001C2
:4003000000000000000000000000000000000000000000000000000000000001000000000000000000000000000000000000000000000000000000000000000000000000BC
:40034000000100000000000000000000000000000000000000000000000000000000000000000000400004000004000480000011000000000000000000000000000000009F
:400380000000000000000000000000000000000000000000000000000000000000000000000000000078470700000000000000000000000000000000000000000000000077
:4003C0000000000000000F00000000000000000001000000000000000000010000000000010000000000000000000100000000000000000040108041000000008028000031
:40040000000000000000401400000000006000100000000000008000000000008000800400000000001080040000000040020400000000000000000000000000000000009A
:40044000000000000000000000000000000040260000000000400100000000000000000000000000000000000000000000000000040001024000002000000000000000006E
:400480000800440C000000200010405500000000C009000000000000000000120000000000000000000000000000000000000000D000E000700000000000B0007000D00034
:4004C000000000000000F000900000000000000000000000000000000000000000000000000000000000000000000000000000000000000000100041000000008008008023
:4005000000000000000040140000000000384004000200000801040200000000008002040000000000100045200000000002048000000000002940000000000004000044A8
:40054000000000004000026500000000000000004000002A0000002000000000000004550000000080800000100000000000000040000000000000000000000000000000A1
:40058000200000400000000810000000001000000000000000030420000000000204000000000000000000000000000000000000D000B000700000000000B000F000D40022
:4005C000E0003000000000004F000000000004000000000000000000000000000000000000000000000000000000000000000000080000000000000082000000000000000E
:40060000AA00000000000000040040000000000008100401000000058000100000000024A800000000100005006000000002000000000000000000000000000000000000D7
:40064000000000000000000000000000000460004000000000000480AA400010000000000000000000000000100000020000000000000401000000411000000000000004EC
:40068000600000400440080082001000100000100000100288020400040050000010000100000000000000000000000000000000040009000F00000000006500EE008C009C
:4006C0000000000000007000C100000000000C002000000000001000000000000000000000000000000000000000000000000000800000020000102000000000000080203B
:4007000000000000000000004000000000008004010010000001000000000082000000008802001000000000204000000000000145100000000140000000100100000000BF
:40074000040010800000000000008821080800018A00002000084208000000000000000000000000000000001000000000000000000004000000000000000000100000000B
:400780000000004000000000000000000000020040000000000000000000000000000040400000000000000000000000000000000100300000000000000009000F008C0062
:4007C0000D00000000008F00FF00000000000400000000004000000000000000200000000000000000000000000000000000000000000000000000000000000000000000FA
:4008000000000000000000000000000000000200000000000000000000000000000002000000000000000000000000000000000000000000000000000000000000000000B4
:400840000000000000000000000000000000000000000000000000000000000000000000000000000000000000000000000000000000001000000000000000000000000068
:400880000000000000000000000000000000001000000000000000000000000000000000000000000000000000000000000000000000000000000000000000000000000028
:4008C0000000000000000000000000000000000000002000000000000000000000000000000000000000000000000000000000000000008000000000000000000000000058
:400900000000000000000000000000000000001000000000000000800000000000000000000000000000000000000000000000000000000000000000000000000000000027
:40094000000000000000000000000000000000000000000000002000000000000000000000000000000000000000000000000000000000000000088000010000000080004E
:40098000000200000000000000000000000080900000000000000880000000200000000000000000000000000000000000000000000000000000000000000000000000007D
:4009C0000000000000000000000000000000000000005000000000000000000000002000000000000000000000000000000000002000000000000000000000000001000066
:400A00000002000000000000000100002000809000000000000008A000000000002000000000000400000000000000000000000000000000000000000000000000000000B7
:400A400000000000000000000000000000000000000000000000200000000000400000000000000000000000000000000000000000200000000100000000000000010004F0
:400A80000000000000000000000000000000000000000000000000000000000000000000000000000000000000000000000000000000000000000000000000000000000036
:400AC00000000020000000000000000000000080200000000000800000000000000000000000000000000000000000000000000000000000000000000000000000000000B6
:400B00000000000000000000000000000000001000000000000008800000000000000400000000000000000000000000000000006000A00000000000000000000000000019
:400B4000000000002000A000400000000000000000000000000000000000000000001000000000000000000000000000000000000000000000000000000000000000000065
:400B80000000000000000000000000000000000000000000000000000000000000000000000004800000081000000000000000000000000000000000000000000000000099
:400BC00000000000000000000000000000000000000000000000000000000000000000000000000000000000000000000000000000000000000000000000000000000000F5
:400C0000000000000000000000000000000000000000000000000000000000000000000000000000000000000000000000000000000000000000000000000000F0000000C4
:400C4000000000000000000000000000000000000000000000000000000000000000000000000000000000000000000000000000A659590059000000007F7F0000000000C5
:400C80000000000000000000000000000000000000000000000000000000000000000000000000000000000000000000000000000000000000000000000000000000000034
:400CC00000000000000000000000000000000000000000000000000000000000000000000000000000000000000000000000000000000000000000000000000000000000F4
:400D000000000000000000000000000000000000000000000000000000000000000000000000000000000000000000000000000000000000000000000000000000000000B3
:400D40000000000000000000000000000000000000000000000000000000000000000000000000000000000000000000000000000000000000000000000000000000000073
:0200000490006A
:0400000000004005B7
:0200000490105A
:04000000BC90ACAF55
:0200000490303A
:02000000128369
:0200000490402A
:4000000000000000000000000000000000000000000000000000000000000000000000000000000000000000000000000000000000000000000000000000000000000000C0
:400040000000000000000000000000000000000000000000000000000000000000000000000000000000000000000000000000000000000000000000000000000000000080
:400080000000000000000000000000000000000000000000000000000000000000000000000000000000000000000000000000000000000000000000000000000000000040
:4000C0000000000000000000000000000000000000000000000000000000000000000000000000000000000000000000000000000000000000000000000000000000000000
:0200000490501A
:0C00000000012E12306900012E1742ECA6
:00000001FF