:400000000080002011000000D9000000D900000080B500AF024A034B1B68136000F088F8BC760040FA46004010B5054C237833B9044B13B10448AFF300800123237010BDE5
:400040008881FF1F00000000D8140000084B10B51BB108480849AFF300800848036803B910BD074B002BFBD0BDE81040184700BF00000000D81400008C81FF1F0881FF1F69
:400080000000000080B584B000AF00F013FB00F099FC3B4600221A60043300221A60043300221A60043300221A80023300221A70013300F0ADFD03461A463B46184605496A
:4000C00000F000FE3B46184600F004FB00233B70EFE700BFDC14000080B400AFFEE700BF80B584B000AF78600F4B1A687B6813441A460E4BD31A802B09DC0B4B1B68FB60FA
:40010000094B1A687B681344074A136007E000F099FD02460C2313604FF0FF33FB60FB6818461037BD4680BD0C81FF1FC081FF1F80B586B000AF224B7B61224B3B61204B9F
:400140007B6135E03B691B68FB603B695B68BB603B699B683B6000237B600CE0FB681A68BB681A60BB680433BB60FB680433FB607B6804337B607A683B689A42EED13B69B9
:40018000DB683B6000237B6008E0BB6800221A60BB680433BB607B6804337B607A683B689A42F2D13B6910333B617B69013B7B617B69002BC6D100F04BFDFFF763FFFEE794
:4001C000010000004C16000080B582B000AF174B174A1A60174A174B1B6843F40073136000237B600FE07B68032B04D8124A7B6852F8233000E0114B11497A6841F822302D
:400200007B6801337B607B682F2BECD90D4B1B78DAB20D4B1A700D4B094A1A6000F064F90B4B00221A600837BD4680BD0CED00E00004FA0514ED00E000000000D9000000F8
:400240000080FF1FBC7600400481FF1F08ED00E00081FF1F80B582B000AF78603960786800213A6800F025FD0837BD4680BD00BF80B584B000AFF860B9607A60F868B968F9
:400280007A6800F00BFD1037BD4680BD80B584B000AFF860B9607A60F868B9687A6800F0FDFC1037BD4680BD80B483B000AF0346FB71FEE780B487B000AF78603960002349
:4002C0003B6100237B6127E07B699B007A6813441B68BB60BB68FB73BB6823F0FF03BB6014E03B695B003A6813441B781A46BB68134419463B695B003A6813445B780B7024
:400300003B6901333B61FB7B013BFB73FB7B002BE7D17B6901337B617B69132BD4D91C37BD465DF8047B704780B582B000AF334B01221A80324B18221A70324B11221A8050
:40034000314B18221A70314B02221A704FF0402308221A702E4B03221A702E4B2E4A1278D2B21A702D4B08221A802D4B41F251221A800023FB7019237B6014E0FB785B00B1
:40038000DAB2284B1B78DBB203F00103DBB21343DBB203F00303FB704FF4F07000F0D8FB7B68013B7B607B68002B02D0FB78032BE4D17B68002B02D10320FFF775FF1A4BEA
:4003C0004FF480721A80184B07221A70174B00221A70174B48221A70134B00221A70154B02221A70144A144B1B78DBB243F00303DBB213700837BD4680BD00BF8040004038
:400400008240004084400040864000400043004000420040A14600400801004922420040204200402542004004400040064000400840004001400040A243004080B483B0A6
:4004400000AF1E4B1B78FB711D4B1B78BB711D4B1B787B711C4AFB7903F00703DBB213701A4AFB791B09DBB21370154ABB7943F00303DBB21370134A7B7943F00303DBB271
:400480001370134B01221A70124B80221A70124B10221A70114B20221A70114B10221A70084A7B791370064ABB7913700D4B44221A700C37BD465DF8047B7047CF010049CA
:4004C000F8460040F94600406E5800406F5800404D51004009590040285B00402B5B0040585B00407658004080B582B000AF72B63B4A3B4B1B78DBB243F00403DBB2137035
:400500000023FB7113E0FA7913465B0013445B00344A13443B603B681A683B689B889BB210461946FFF796FEFB790133FB71FB79092BE8D92C482D49FFF7BCFE2C4A2C4B75
:400540001B78DBB243F00203DBB21370294A294B1B78DBB243F00203DBB21370264A264B1B78DBB243F04003DBB21370234A234B1B78DBB243F01003DBB21370204821491A
:400580000822FFF783FE204820490822FFF77EFE1F4820490822FFF779FE1F481F490822FFF774FE1E4A1E4B1B78DBB243F00803DBB213701B4B00221A70FFF7B5FE194B07
:4005C00080221A70184B01221A70FFF737FF174809490E22FFF74CFE0837BD4680BD00BFE8460040E01400001C1500006C1500000350014013500140A0430040C243004080
:4006000002510040D015000012510040D815000022510040E015000042510040E8150000224300400048004004000840B043004080B500AF282000F0B7FA032000F092F923
:40064000052000F0B1FA032000F08CF90F2000F0ABFA032000F086F9012000F0A5FA022000F080F9052000F09FFA062000F068F80E2000F065F82C2000F062F8082000F044
:400680005FF8012000F05CF80C2000F059F8032000F056F8052000F087FA80BD80B500AF0C2000F04DF8024B01221A7080BD00BFA481FF1F80B500AF054B1B78002B04D198
:4006C000FFF7B6FF024B01221A70FFF7E7FF80BDA581FF1F80B584B000AF78600123FB737B681B78BB730BE0BB7B184600F00EF8FB7B7A6813441B78BB73FB7B0133FB73D5
:40070000BB7B002BF0D11037BD4680BD80B584B000AF0346FB7100F02DF8FB791B09FB73FB7B184600F0E2F8FB7903F00F03FB73FB7B184600F0DAF81037BD4680BD00BFC7
:4007400080B584B000AF0346FB7100F013F8FB791B09FB73FB7B184600F004F9FB7903F00F03FB73FB7B184600F0FCF81037BD4680BD00BF80B582B000AF4FF4CA737B6094
:40078000554A554B1B78DBB223F07F03DBB21370524B1B78DBB223F00F03FB704F4AFB7843F00F03DBB213704D4B1B78DBB223F00F03FB704A4AFB7813704A4B1B78DBB200
:4007C00023F00F03FB70474AFB781370424A424B1B78DBB223F02003DBB213703E4A3E4B1B78DBB243F04003DBB21370002000F0FDF9394A384B1B78DBB243F01003DBB2AD
:400800001370012000F0F2F9374B1B78FB70324A314B1B78DBB223F01003DBB21370002000F0E4F9FB7803F00803FB702A4A2A4B1B78DBB243F01003DBB21370012000F032
:40084000D5F9254A244B1B78DBB223F01003DBB21370FB78002B02D10A2000F0C7F97B68013B7B60FB78002B02D07B68002BBDD1194A194B1B78DBB223F04003DBB21370D8
:40088000154A154B1B78DBB223F07F03DBB21370124A124B1B78DBB223F00F03DBB213700F4B1B78DBB223F00F03FB700C4AFB7843F00F03DBB213700A4B1B78DBB223F0F6
:4008C0000F03FB70074AFB7843F00F03DBB213700837BD4680BD00BF205100402251004023510040245100402151004080B582B000AF0346FB711A4A194B1B78DBB243F0BF
:400900002003DBB21370164A154B1B78DBB223F04003DBB21370002000F068F9104A104B1B78DBB223F00F03DBB213700C490C4B1B78DAB2FB791343DBB243F01003DBB2CE
:400940000B70012000F052F9054A054B1B78DBB223F01003DBB213700837BD4680BD00BF2051004080B582B000AF0346FB71144A134B1B78DBB223F06003DBB21370104A35
:400980000F4B1B78DBB223F00F03DBB213700C490B4B1B78DAB2FB791343DBB243F01003DBB20B70012000F021F9054A044B1B78DBB223F01003DBB213700837BD4680BD7B
:4009C0002051004080B500AF054B1B78002B04D100F008F8024B01221A7000F063F880BDA681FF1F80B582B000AF294A284B1B78DBB243F00203DBB21370264B1B78DBB2D3
:400A000023F07003FB71234AFB7943F01003DBB21370214A204B1B78DBB223F03003DBB213701D4A1C4B1B78DBB243F03003DBB21370194A184B1B78DBB223F00F03DBB245
:400A40001370154A144B1B78DBB243F00F03DBB213704FF6FF7000F049F84FF4004000F055F8002000F062F80C4A0C4B1B78DBB243F00103DBB21370094A094B1B78DBB2D6
:400A800043F00103DBB213700837BD4680BD00BF004F0040024F00400B4F0040A3430040014F004080B400AF0D4A0D4B1B78DBB243F00103DBB213700A4A0A4B1B78DBB27F
:400AC00043F00103DBB21370074A074B1B78DBB243F00103DBB21370BD465DF8047B7047A3430040B3430040004F004080B483B000AF0346FB80044AFB8813800C37BD46A8
:400B00005DF8047B704700BF044F004080B483B000AF0346FB80044AFB8813800C37BD465DF8047B704700BF064F004080B483B000AF0346FB71044AFB7913700C37BD461F
:400B40005DF8047B704700BF034F004000000000142816D902B4012114381049097811F0C001890904B40E4A515C04BC00BF00BF00BF8841FDD500BF00BF02BC704700BF15
:400B800000BF70F10400FCD570470B050709EFF3108072B6704780F310887047004800408A0B0000AFF3008080B582B000AF786008E00C4B1B681846FFF7CAFF7B68A3F5CF
:400BC00000437B607B68B3F5004FF2D8064B1B687A6802FB03F31846FFF7BAFF0837BD4680BD00BF1C81FF1F1481FF1F80B582B000AF0346FB80FB88044A127802FB03F3A9
:400C00001846FFF7A5FF0837BD4680BD1881FF1F80B483B000AF094B1B88FB80084B1B889BB29BB2FA88D31A9BB29BB21BB218460C37BD465DF8047B704700BFA25B00406D
:400C4000B281FF1F014B1868704700BF8081FF1F0E4B70B51E460E4C0025E41AA410A54204D056F8253098470135F8E700F0DCFC084B094C1E46E41AA4100025A54204D0F7
:400C800056F8253098470135F8E770BD3416000034160000341600003C16000010B5431E0A44914204D011F8014B03F8014FF8E710BD03460244934202D003F8011BFAE7AB
:400CC000704700000EB400B54FF402719CB0ADF814106FF00041049107914FF6FF711DABADF81610084953F8042B02900690086802A9019300F064F8029B00221A701CB0E3
:400D00005DF804EB03B070478081FF1F2DE9F0478E688246B3420C469046994640D38A8912F4906F3AD02568096902236F1A656905EB450595FBF3F57B1C4B449D4238BF81
:400D40001D4653050FD5294600F030FB064698B121693A46FFF7A2FFA38923F4906343F08003A38113E02A4600F076FB064670B95046216900F0D6FA0C23CAF80030A3899E
:400D80004FF0FF3043F04003A381BDE8F08726613E4426604E466561ED1BA560B14500D24E4632462068414600F0A0FAA36800209B1BA36023681E442660BDE8F087000039
:400DC0002DE9F0439DB003938B8906461C060D4690460CD50B6953B9402100F0E7FA2860286110B90C233360CCE040236B610023099320238DF8293030238DF82A30434677
:400E00001C4613F8012B1AB9B4EB08090FD002E0252AF5D1F8E73046294642464B46FFF775FF013000F0A980099B4B4409932378002B00F0A28000234FF0FF3204930793C4
:400E4000059206938DF853301A9304F101084446DFF8489121784846052200F039FA08F10108049B30B1C9EB00000122824013430493ECE7D80644BF20228DF853201907CE
:400E800044BF2B228DF8532022782A2A02D0079923460EE0039A0134111D12680391002ABBBF524243F0020307920792B8BF04930AE01C4622780133303A092A03D80A20B9
:400EC00000FB0121F5E7079123782E2B1AD163782A2B0AD1039B02341A1D1B680392002BB8BF4FF0FF3305930CE0611C00220C4623780131303B092B03D80A2000FB02322C
:400F0000F5E70592DFF8988021784046032200F0DFF938B1049AC8EB00004023834013430493013421781A48062204F101088DF8281000F0CDF988B1164B33B9039B0733CF
:400F400023F007030833039313E003AB0093304604A92A46104BAFF3008007E003AB0093304604A92A460C4B00F092F8421C074603D0099B3B44099341E7AB895B0601D4E4
:400F8000099801E04FF0FF301DB0BDE8F08300BFFC150000000000000D0D0000F2150000F81500002DE9F84391461F468A680B6906469342B8BF1346C9F8003091F843209D
:400FC0000C46DDF8208012B10133C9F800302368990642BFD9F800300233C9F80030256815F006051CD094F843302268003318BF012392061FD5E118302081F843005A1CA9
:4010000094F845102244023382F8431013E03046394604F119020123C047013007D00135E368D9F800209B1A9D42F0DBDBE74FF0FF30BDE8F8833046394604F14302C047E5
:401040000130F4D02268D9F80050E36802F00602042A08BF5D1B2269A3680CBF25EAE57500259342C4BF9B1AED184FF00009A9450ADA3046394604F11A020123C0470130A1
:40108000D5D009F10109F2E70020BDE8F88300002DE9FF410C461746227E98466E2A06460A9B01F1430100F0B08012D8632A23D00AD8002A00F0BD80582A40F0CC8084F8EF
:4010C0004520DFF804E257E0642A1ED0692A1CD0C1E0732A00F0B18009D86F2A2ED0702A40F0B980226842F0200222603FE0752A24D0782A3BD0AEE01A6804F14205111D89
:401100001960136884F84230A9E020681A6810F0800F02D0101D186008E010F0400F02F10400186002D0B2F9003000E01368002B3EDA2D225B4284F8432039E020681A6855
:4011400010F0800F02D0101D186007E010F0400F02F10400186001D0138800E01368227EDFF864E16F2A0CBF08220A221CE07822DFF858E184F845202268186812F0800F65
:4011800000F104051D6003D1550601D5038800E00368D00744BF42F0200222601BB9226822F0200222601022002084F8430002E0DFF814E10A226568002DA8BF2068A56040
:4011C000A4BF20F00400206003B965B10D46B3FBF2F002FB10331EF8033005F8013D03460028F4D100E00D46082A0BD12368DA0708D5236962689A42DEBF302305F8013C63
:4012000005F1FF35491B21612EE025681A6815F0800F606903D0151D1D60136808E015F0400F02F104051D60136801D0188000E01860002323610D4616E01A68111D19601D
:40124000156800212846626800F042F808B1401B6060636804E004F1420584F8422001232361002384F84330CDF800803046214603AA3B46FFF796FE013002D14FF0FF30CB
:401280001FE0304639462A462369C0470130F5D023689B0705D4E068039B9842B8BF18460FE00025E368039A9B1A9D42F3DA3046394604F119020123C0470130DED0013504
:4012C000F0E704B0BDE8F081031600001416000010B5C9B202449042034605D01C7801308C42F8D1184610BD002010BD814210B501EB020301D3421E0BE09842FBD2811848
:40130000D21AD34204D013F8014D01F8014DF8E710BD994204D011F8014B02F8014FF8E710BD000030B500293CD051F8042C0B1F1D49002AB8BF9B180A680C4612B95A60D2
:401340000B6030BD93420DD219685818904201BF5A5852181A60426823605A6030BD994203D80A4651680029F9D1146815199D420AD11B682344D0188842136012D10868FC
:40138000034413604B680CE002D90C23036030BD1C681819884201BF08684968001918605960536030BD00BFAC81FF1F70B5CC1C24F0030408340C2C38BF0C24002C0646EB
:4013C00003DA0C233360002070BD8C42F9D3204A136810461946A1B10A68121B0ED40B2A03D90A608B188C501FE08B420BBF5A684A6802605A6018BF0B4616E00B464968BA
:40140000E9E7144D2B681BB9304600F04BF828603046214600F046F8421C0346D1D0C51C25F0030585420AD11C6003F10B001A1D20F00700821A0AD05142995070BD304692
:40144000E91A00F02FF80130BBD02B46ECE770BDAC81FF1FA881FF1FF8B5074615460E4621B91146BDE8F840FFF7A0BF1AB9FFF759FF2846F8BD00F025F8A8420ED23846EE
:401480002946FFF793FF044650B131462A46FFF705FC38463146FFF745FF01E03046F8BD2046F8BD38B5064C0023054608462360FEF716FE431C02D1236803B12B6038BD3E
:4014C000BC81FF1F51F8040C0028BEBF091851F8043CC018043870470000000025660000004F00400C00305100401000505100402000C05100401000F05100401000000034
:401500000140001000140140000800400140000A004C01400002005001402000024F004002520040015B00400107014001090140040A0140010B0140021501400117014090
:4015400001190140021B0140024001400141014003420140054301400448014003490140094C0140034D01400151014001100A4B084009402F84EE08AF20B820BE10D804D8
:40158000DF011F20E810EE08E810E810E810EE083320CC10A7206302A720D6401810A720AF01C610EE102408A720B410C820AF20B404EE101F80340264809880B480C601A5
:4015C000CC01D801E808AF80B402E8080003000000000000000004000040400040000000007F7F000000000000000000000001004300232D302B2000686C4C006566674515
:4016000046470030313233343536373839414243444546003031323334353637383961626364656600000000F8B500BFF8BC08BC9E4670474D000000C9010000F8B500BF17
:40164000F8BC08BC9E46704729000000601600000881FF1F80000000380000000000000000000000C081FF1F00366E01C05D0000180000000000E02E000000000000000012
:40168000000000000000000000000000000000000000000000000000F015000000000000000000000000000000000000000000000000000000000000000000000000000025
:4016C0000000000000000000000000000000000000000000000000002081FF1F0000000000000000000000000000000000000000000000000000000000000000000000002B
:4017000000000000000000000000000000000000000000000000000000000000000000000000000000000000000000000000000000000000000000000000000000000000A9
:401740000000000000000000000000000000000000000000000000000000000000000000000000000000000000000000000000000000000000000000000000000000000069
:401780000000000000000000000000000000000000000000000000000000000000000000000000000000000000000000000000000000000000000000000000000000000029
:4017C00000000000000000000000000000000000000000000000000000000000000000000000000000000000000000000000000000000000000000000000000000000000E9
:0200000480007A
:0200000490006A
:0400000000004005B7
:0200000490105A
:04000000BC90ACAF55
:0200000490303A
:020000004A7A3A
:0200000490402A
:4000000000000000000000000000000000000000000000000000000000000000000000000000000000000000000000000000000000000000000000000000000000000000C0
:400040000000000000000000000000000000000000000000000000000000000000000000000000000000000000000000000000000000000000000000000000000000000080
:400080000000000000000000000000000000000000000000000000000000000000000000000000000000000000000000000000000000000000000000000000000000000040
:4000C0000000000000000000000000000000000000000000000000000000000000000000000000000000000000000000000000000000000000000000000000000000000000
:0200000490501A
:0C00000000012E12306900012E1A7AE374
:00000001FF