:400000000080002011000000D50A0000D50A000080B500AF024A034B1B68136000F088FDBC760040FA4600400800022300000876080003230000107608000423000028764A
:4000400008000523000030760500062300002070050007230000307005000823000060700500FE230000707020000A220000005120000B220000305110000C2200006051BD
:400080001000FE220000C05180030E220000000080090F2200000004000210220000000E80031122000000148001122200000018000213220000001A80001422000000416D
:4000C0008000152200000042800016220000004300011722000000440001182200000046000119220000004980001A220000004C00011B220000004D2000FE220000005065
:4001000007001D230000785208001E230000784508001F230000885A0800FE230000985A0800212300000051800022230000804C8000232300000047800024230000804798
:400140008000252300000045800026230000804580002723000080198000282300008017800029230000800D80002A230000800380002B230000004880002C2300008048C9
:4001800080002D230000804380002E230000804280002F230000804180003023000000408000FE2300008040010000000100000001000000004801400100000000480040FD
:4001C0000100000000200140010000000020004010B5054C237833B9044B13B10448AFF300800123237010BDE881FF1F00000000648F0000084B10B51BB108480849AFF3F9
:4002000000800848036803B910BD074B002BFBD0BDE81040184700BF00000000648F0000EC81FF1F0881FF1F0000000090B585B000AF78600023FB6010E0284B1A68FB68B3
:4002400079680B441B78013313441B7803F00803002B00D108E0FB680133FB60FB687A6813441B78002BE8D1FB687A68D418786806F098FE0246FB68D31A01337868214606
:400280001A4606F07EF9786806F08CFE0346013BFB60FB68B3F1FF3F03D17B6800221A7019E00E4B1A68FB6879680B441B78013313441B7803F00803002B00D105E0FB682F
:4002C000013BFB60FB68002BEBDAFB6801337A68134400221A701437BD4690BD4881FF1F90B5BFB002AF00F01FFF0120002100F02BFF0020002100F027FF954800F05AFFCA
:4003000004F016F904F0FAF903F00AFF03F0BCFC03F030FF03F0E2FC0020012101F0DEFB01F078FF62B601F085FD0346002B06D001F074FD0346002B01D001F06BFF01F0FD
:400340006DFD0346002B00F0028102F03DF80346002B00F0FC803B4640221846002106F02BF907F18803184600F08EFB07F188031846FFF75BFF07F1880107F140023C46E1
:4003800007F14403009308467249234606F0D4FDC7F8EC00D7F8EC30032B40F09F803B4618466D4906F0F4FD0346002B15D17A6C3B6C104600211A4600F0FCFAC7F8E80058
:4003C0003A6C07F148013C46D7F8E830009308466249234606F08CFDB4E03B461846604906F0D6FD0346002B15D17A6C3B6C104601211A4600F0DEFAC7F8E8003A6C07F188
:4004000048013C46D7F8E830009308465349234606F06EFD96E03B461846524906F0B8FD0346002B15D17A6C3B6C104602211A4600F0C0FAC7F8E8003A6C07F148013C46AE
:40044000D7F8E830009308464449234606F050FD78E03B461846444906F09AFD0346002B15D17A6C3B6C104603211A4600F0A2FAC7F8E8003A6C07F148013C46D7F8E830E6
:40048000009308463549234606F032FD5AE03B461846364906F07CFD0346002B15D17A6C3B6C104604211A4600F084FAC7F8E8003A6C07F148013C46D7F8E8300093084640
:4004C0002649234606F014FD3CE007F148023B46104627491A4606F00BFD33E0D7F8EC30022B26D13B461846224906F051FD0346002B15D13B6C002B03D1002000F040F822
:4005000005E03B6C012B02D1022000F039F83B6C07F14802104618491A4606F0E9FC11E007F148023B46104611491A4606F0E0FC08E007F1480207F1880310460F491A46C1
:4005400006F0D6FC07F14803184600F08DFAEAE6908F0000948F0000A08F0000A88F0000CC8F0000D48F0000E08F0000EC8F0000F08F000004900000089000002090000020
:4005800080B582B000AF78607B68032B10D801A252F823F0A5050000A5050000AB050000AB05000003F0E6FD02E003F097FB00BF0837BD4680BD00BF80B584B000AFF860F6
:4005C000B9607A60BB68032B3ED801A252F823F0E1050000FB050000150600002F0600007720012103F0BEFFFB689BB2786819460022002303F0A4FD26E00520012103F0FA
:40060000B1FFFB689BB2786819460022002303F097FD19E07720012104F08AF8FB689BB2786819460022002303F03EFB0CE00520012104F07DF8FB689BB27868194600221A
:40064000002303F031FB00BF1037BD4680BD00BF80B485B000AF786039600023FB6015E07B68DA0F13445B101A46FB689A4205DDFB683A681344FF221A7004E0FB683A6838
:40068000134400221A70FB680133FB60FA687B689A42E5DB1437BD465DF8047B704700BF2DE9904385B000AF786039600023FB603FE0FB683A68D418F86805F0E3FB024685
:4006C0000B461046194620A3D3E9002305F040FC02460B4690469946786805F0D3FB02460B464046494605F05DFD02460B461046194604F027F902460B461046194614A3CC
:40070000D3E9002305F024FC02460B46104619464FF00002104B05F069FA02460B461046194605F0D7FE0346DBB22370FB680133FB60FA687B689A42BBDB1437BD46BDE866
:40074000908300BFAFF30080F1D4C853FB2119400000000000C05F4000006040AFF300802DE9904385B000AF786039600023FB6068E07B68DA0F13445B101A46FB689A42DE
:400780002DDDFB683A68D418F86805F07BFB80468946786805F076FB02460B46104619464FF000024FF0804305F0FCFC02460B464046494605F0F6FC02460B461046194637
:4007C00025A3D3E9002305F0C3FB02460B461046194605F07FFE0346DBB223702FE0FB683A68D4187A68FB68D31A184605F04AFB80468946786805F045FB02460B46104613
:4008000019464FF000024FF0804305F0CBFC02460B464046494605F0C5FC02460B46104619460DA3D3E9002305F092FB02460B461046194605F04EFE0346DBB22370FB683C
:400840000133FB60FA687B689A4292DB1437BD46BDE89083AFF300800000000000E06F402DE9904385B000AF786039600023FB6025E0FB683A68D418F86805F003FB8046D9
:400880008946786805F0FEFA02460B464046494605F088FC02460B46104619460CA3D3E9002305F055FB02460B461046194605F011FE0346DBB22370FB680133FB60FA6845
:4008C0007B689A42D5DB1437BD46BDE8908300BF0000000000E06F4080B485B000AF786039600023FB6007E0FB683A681344FF221A70FB680133FB60FA687B689A42F3DB5F
:400900001437BD465DF8047B704700BF80B584B000AFF860B9607A60BB68042B25D801A252F823F039090000430900004D0900005709000061090000F8687968FFF788FE02
:4009400013E0F8687968FFF7ABFE0EE0F8687968FFF706FF09E0F8687968FFF781FF04E0F8687968FFF7B8FF00BF1037BD4680BD80B483B000AF78607B68032B0ED801A23A
:4009800052F823F095090000950900009909000099090000054B02E0054B00E0002318460C37BD465DF8047B704700BF2C82FF1FCC91FF1F80B588B000AFF860B9607A6039
:4009C000FB68312B02DC3223FB6005E0FB68234A934201DD214BFB60FB68B3F5FA6F10DA7B68002B02D10023FB6104E07B68012B01D10223FB611A4AFB6892FBF3F3BB6121
:400A00000FE07B68002B02D10123FB6104E07B68012B01D10323FB61124AFB6892FBF3F3BB61F869FFF7A4FF78617B69002B0ED0F869FFF7A5FDB869B9687A69FFF766FF98
:400A4000B869F9697A69FFF7B7FDFB6801E04FF0FF3318462037BD4680BD00BFA0860100400D030000093D0080B582B000AF786000BF01F0BBFC0346002BFAD0786801F0DC
:400A800035FC0837BD4680BD80B584B000AF78600023FB6000BF01F097FC0346002BFAD001F0B6FC0346FB72FB687A681344FA7A1A70FB7A0D2B06D1FB6801337A68134450
:400AC00000221A7003E0FB680133FB60E2E71037BD4680BD80B400AFFEE700BF80B584B000AF7860104B1A687B6813441A460F4BD31AB3F5007F09DC0B4B1B68FB600A4B5B
:400B00001A687B681344084A136007E005F002FD02460C2313604FF0FF33FB60FB6818461037BD4680BD00BF0C81FF1F48A2FF1F80B586B000AF224B7B61224B3B61204B12
:400B40007B6135E03B691B68FB603B695B68BB603B699B683B6000237B600CE0FB681A68BB681A60BB680433BB60FB680433FB607B6804337B607A683B689A42EED13B69AF
:400B8000DB683B6000237B6008E0BB6800221A60BB680433BB607B6804337B607A683B689A42F2D13B6910333B617B69013B7B617B69002BC6D105F0B3FCFFF791FBFEE7F4
:400BC000010000008CAF000080B582B000AF184B184A1A60184A184B1B6843F40073136000237B600FE07B68032B04D8134A7B6852F8233000E0124B12497A6841F8223043
:400C00007B6801337B607B682F2BECD90E4B1B78DAB20E4B1A700E4B0A4A1A6000F0BCF900F052FC0B4B00221A600837BD4680BD0CED00E00004FA0514ED00E0000000002D
:400C4000D50A00000080FF1FBC7600400481FF1F08ED00E00081FF1F80B582B000AF78603960786800213A6805F0A6FC0837BD4680BD00BF80B584B000AFF860B9607A600C
:400C8000F868B9687A6805F071FC1037BD4680BD80B483B000AF0346FB71FEE780B582B000AF454B00221A60444B10221A70444B01221A70434B00221A70434B4FF4C07232
:400CC0001A80424B01221A70414B03221A70414B414A92B21A80414B47F608021A80404B00221A803F4B4FF480421A803E4B09221A703E4B0D221A703D4B1C221A703D4BBB
:400D000020221A70BFF35F8F3B4B01221A70BFF35F8F00BF2C4B1B889BB2002BFAD100237B600DE07B68DA00344B13441946344A7B6852F823309BB20B807B6801337B60B3
:400D40007B682F2BEED9BFF35F8F2B4B01221A70BFF35F8F00BF2B4B1B78DBB203F00103002BF8D100BF284B1B78DBB203F00103002BF8D100BF254B1B78DBB203F0010349
:400D8000002BF8D100BF224B1B78DBB203F00103002BF8D100BF1F4B1B78DBB203F00103002BF8D11C484FF090410622FFF762FF0837BD4680BD00BF0882FF1F0076004045
:400DC0001070004019700040007800400278004003780040047800402800000006780040047600400676004029700040397000406970004079700040147000400C78004099
:400E00003890000018700040287000403870004068700040787000401051014080B582B000AF334B77221A80324B19221A70324B77221A80314B19221A70314B06221A7058
:400E4000304B52221A70304B304A1278D2B21A702F4B40F61F521A802E4B41F251221A800023FB7019237B6014E0FB785B00DAB2294B1B78DBB203F00103DBB21343DBB20A
:400E800003F00303FB704FF4F07000F00DFB7B68013B7B607B68002B02D0FB78032BE4D17B68002B02D10320FFF7F2FE1B4B4FF480721A80194B07221A70194B00221A70BD
:400EC000184B48221A70154B00221A70164B00221A70164B02221A70154A154B1B78DBB243F00303DBB213700837BD4680BD00BF8040004082400040844000408640004001
:400F00000043004000420040A14600400F0100492242004020420040254200400440004006400040084000400940004001400040A243004080B483B000AF104B1B78FB710E
:400F40000F4AFB7903F00703DBB213700D4AFB791B09DBB213700C4B40F201221A800B4B02221A700A4B10221A700A4B44221A700C37BD465DF8047B704700BFCF0100494F
:400F80006E5800406F5800405C5100408C5A00409B5A00407658004080B500AF72B62F4B01221A70FFF73AFF2D4A2D4B1B78DBB243F00403DBB21370FFF770FE2948042119
:400FC000FFF74AFE28480421FFF746FE27480421FFF742FE26480421FFF73EFE254A254B1B78DBB243F00203DBB21370224A224B1B78DBB243F00203DBB213701F4A1F4BFA
:401000001B78DBB243F04003DBB213701C4A1C4B1B78DBB243F01003DBB2137019481A490A22FFF727FE194819490822FFF722FE184819490822FFF71DFE184A174B1B7865
:40104000DBB243F00803DBB21370FFF773FF14480A490E22FFF70EFE80BD00BF00480040E8460040007600400876004010760040187600400350014013500140A0430040F7
:40108000C2430040F051004030080048225100403C080048525100404408004822430040B043004080B500AF282000F037FC032000F0C8F9052000F031FC032000F0C2F929
:4010C0000F2000F02BFC032000F0BCF9012000F025FC022000F0B6F9052000F01FFC062000F09EF80E2000F09BF82C2000F098F8082000F095F8012000F092F80C2000F03A
:401100008FF8032000F08CF8052000F007FC80BD80B500AF0C2000F083F8024B01221A7080BD00BF1082FF1F80B500AF054B1B78002B04D1FFF7B6FF024B01221A70FFF7B9
:40114000E7FF80BD1182FF1F80B582B000AF03460A46FB711346BB71FB79032B26D801A252F823F07511000083110000911100009F110000BB79803BDBB2184600F050F8DD
:4011800015E0BB79403BDBB2184600F049F80EE0BB796C3BDBB2184600F042F807E0BB792C3BDBB2184600F03BF800E000BF0837BD4680BD80B584B000AF78600123FB7361
:4011C0007B681B78BB730BE0BB7B184600F00EF8FB7B7A6813441B78BB73FB7B0133FB73BB7B002BF0D11037BD4680BD80B584B000AF0346FB7100F02DF8FB791B09FB73BD
:40120000FB7B184600F0E2F8FB7903F00F03FB73FB7B184600F0DAF81037BD4680BD00BF80B584B000AF0346FB7100F013F8FB791B09FB73FB7B184600F004F9FB7903F057
:401240000F03FB73FB7B184600F0FCF81037BD4680BD00BF80B582B000AF4FF4CA737B60554A554B1B78DBB223F07F03DBB21370524B1B78DBB223F00F03FB704F4AFB7822
:4012800043F00F03DBB213704D4B1B78DBB223F00F03FB704A4AFB7813704A4B1B78DBB223F00F03FB70474AFB781370424A424B1B78DBB223F02003DBB213703E4A3E4BAB
:4012C0001B78DBB243F04003DBB21370002000F047FB394A384B1B78DBB243F01003DBB21370012000F03CFB374B1B78FB70324A314B1B78DBB223F01003DBB21370002044
:4013000000F02EFBFB7803F00803FB702A4A2A4B1B78DBB243F01003DBB21370012000F01FFB254A244B1B78DBB223F01003DBB21370FB78002B02D10A2000F011FB7B6880
:40134000013B7B60FB78002B02D07B68002BBDD1194A194B1B78DBB223F04003DBB21370154A154B1B78DBB223F07F03DBB21370124A124B1B78DBB223F00F03DBB213706B
:401380000F4B1B78DBB223F00F03FB700C4AFB7843F00F03DBB213700A4B1B78DBB223F00F03FB70074AFB7843F00F03DBB213700837BD4680BD00BF205100402251004045
:4013C00023510040245100402151004080B582B000AF0346FB711A4A194B1B78DBB243F02003DBB21370164A154B1B78DBB223F04003DBB21370002000F0B2FA104A104B02
:401400001B78DBB223F00F03DBB213700C490C4B1B78DAB2FB791343DBB243F01003DBB20B70012000F09CFA054A054B1B78DBB223F01003DBB213700837BD4680BD00BF0D
:401440002051004080B582B000AF0346FB71144A134B1B78DBB223F06003DBB21370104A0F4B1B78DBB223F00F03DBB213700C490B4B1B78DAB2FB791343DBB243F010031E
:40148000DBB20B70012000F06BFA054A044B1B78DBB223F01003DBB213700837BD4680BD20510040000000000230800803D000BF01380046FCD17047EFF3108072B67047EA
:4014C00080F31088704700BF80B483B000AF134B7F221A70124B80221A707F23FB710CE0FB79DB0003F1804303F5F043FA79013AD2B21A70FB79013BFB71FB79002BEFD1E1
:40150000FB79DB0003F1804303F5F04300221A700C37BD465DF8047B704700BF1181FF1F1081FF1F80B485B000AF03460A46FB711346BB710123FB60FB79172B2FD8BB79CD
:40154000002B0ED0FB791A01184B1344FA791101164A0A441278D2B242F02002D2B21A700DE0FB791A01114B1344FA7911010F4A0A441278D2B222F02002D2B21A70FB7957
:401580001A010A4B1344FA791101084A0A441278D2B242F00102D2B21A700023FB60FB6818461437BD465DF8047B70471070004080B485B000AF0346FB710123FB60FB7956
:4015C000172B1DD8FB791A01114B1344FA7911010F4A0A441278D2B222F00102D2B21A70FB791A010A4B1344FA791101084A0A441278D2B222F02002D2B21A700023FB60E7
:40160000FB6818461437BD465DF8047B704700BF1070004080B485B000AF03460A46FB711346BB710123FB60FB79172B18D8FB791A010F4B13441B78DBB223F00E03FB72D9
:40164000FB791A010A4B1344BA7902F00702D2B25200D1B2FA7A0A43D2B21A700023FB60FB6818461437BD465DF8047B704700BF1070004080B485B000AF0346FB710B4624
:40168000BB8013467B800123FB60BB8841F6FF72934202D14FF40053BB807B8841F6FF72934202D14FF400537B80FB79172B17D8FB79DB0003F1804303F5EC430433BB60B0
:4016C000BB68BA881A80FB79DB0003F1804303F5EC430633BB60BB687A881A800023FB60FB6818461437BD465DF8047B704700BF80B485B000AF03460A46FB711346BB7132
:401700000123FB60FB79172B07D8FB791A01064B1344BA795A720023FB60FB6818461437BD465DF8047B70471070004090B484B000AF0446084611461A462346FB710346F3
:40174000BB710B467B7113463B710123FB60FB79172B34D8FB79DB0003F1804303F5EC43BA7902F07F02D1B27A79D201D2B20A43D2B21A70FB79DB0003F1804303F5EC4392
:401780003A7E1201D1B23A7902F00F02D2B20A43D2B25A70FB79DB0003F1804303F5EC433A7F02F00F02D2B29A70FB79DB0003F1804303F5EC430022DA700023FB60FB6815
:4017C00018461037BD4690BC704700BF80B582B000AFFF23FB71FFF76FFE0346BB71104B1B78182B12D90F4B1B78FB710C4B1B78013BDAB20A4B1A70FB79DB0003F18043F7
:4018000003F5F0431B78DAB2064B1A70BB791846FFF756FEFB7918460837BD4680BD00BF1081FF1F1181FF1F90B484B000AF0446084611461A462346FB710346BB800B4618
:40184000BB711346FB700123FB60FB795BB2002B23DBBB8823F47F6323F00F039BB2002B1BD1FB79DB0003F1804303F5F043BB60BB68BA881A80FB79DB0003F1804303F541
:40188000F043BA799A70FB79DB0003F1804303F5F043FA78DA700023FB60FB6818461037BD4690BC704700BF80B485B000AF0346FB710B46BB8013467B800123FB60FB79E0
:4018C0005BB2002B17DBFB79DB0003F1804303F5F0430433BB60BB68BA881A80FB79DB0003F1804303F5F0430633BB60BB687A881A800023FB60FB6818461437BD465DF816
:40190000047B704780B483B000AF0346FB7101BE0C37BD465DF8047B704700BF80B582B000AF786008E00C4B1B681846FFF7BCFD7B68A3F500437B607B68B3F5004FF2D85D
:40194000064B1B687A6802FB03F31846FFF7ACFD0837BD4680BD00BF2481FF1F1C81FF1F80B582B000AF0346FB80FB88044A127802FB03F31846FFF797FD0837BD4680BD76
:401980002081FF1F80B584B000AF03463960FB710F4B1B68FB60FB791F2B02D90020FFF7B1FFFB7903F01F0310339B00FA6813441B68BB60FB7903F01F0310339B00FA68E4
:4019C00013443A681A60BB6818461037BD4680BD08ED00E080B582B000AF03460A46FB711346BB71BB79072B02D90020FFF78AFFFB791F2B02D90020FFF784FFFB7903F07E
:401A00001F0303F1604303F56443BA795201D2B21A700837BD4680BD80B483B000AF7860264B1B78DBB21A467B681A60244B1B78DBB21B027A6812681A437B681A60214BD1
:401A40001B78DBB21B047A6812681A437B681A601D4B1B78DBB21B067A6812681A437B681A607B680433194A1278D2B21A60184B1B78DBB21A027B6804337968043109680D
:401A80000A431A60134B1B78DBB21A047B6804337968043109680A431A600F4B1B78DBB21A067B6804337968043109680A431A600C37BD465DF8047B704700BF030100497C
:401AC00004010049EC460040020100490101004900010049050100490601004980B582B000AF03460A46FB711346BB71084B1B78002B04D100F00EF8054B01221A70FA79BA
:401B0000BB791046194600F0D5F80837BD4680BD1282FF1F80B582B000AFFFF7CDFC0346FB71534A524B1B78DBB243F00103DBB21370504A4F4B1B78DBB243F00103DBB28B
:401B400013704D4B01221A704C4B02221A704C4A4B4B1B78DBB203F07F03DBB213700020FFF7FEFE474A474B1B78DBB223F00603DBB21370444A444B1B78DBB223F0200393
:401B8000DBB213703F4A3F4B1B78DBB243F00103DBB213700120FFF7E3FE2820FFF7E0FE3A4A3A4B1B78DBB203F07F03DBB21370364A364B1B78DBB223F04003DBB2137052
:401BC000304A304B1B78DBB243F00203DBB213700220FFF7C5FE2B4A2A4B1B78DBB243F00403DBB213702A4B00221A70294B00221A70FB791846FFF763FC17200721FFF79C
:401C0000E9FE17202449FFF7BDFE18200721FFF7E1FE18202149FFF7B5FE15200721FFF7D9FE15201E49FFF7ADFE00200721FFF7D1FE00201B49FFF7A5FE01200721FFF718
:401C4000C9FE01201849FFF79DFE02200721FFF7C1FE02201549FFF795FE0C200721FFF7B9FE0C201249FFF78DFE0837BD4680BDA5430040B54300409D60004009600040B4
:401C8000106000409443004012600040F85100408460004085600040092C0000D9240000FD2B0000F92A00004D2B0000A12B0000152C000080B582B000AF03460A46FB71BC
:401CC0001346BB712E4AFB7913702E4B00221A702D4B00221A702D4B00221A702C4B00221A702C4B00221A702B4B00221A702B4B00221A702A4B4FF400021A60284B4FF013
:401D000080721A60264B4FF400121A60244B01221A60234B02221A60214B04221A60BB79002B02D0012B09D011E01E4A1D4B1B78DBB223F00103DBB2137011E0194A194BDD
:401D40001B78DBB243F00103DBB2137008E0154A144B1B78DBB243F00103DBB2137000BF114B03221A70114B80221A700120FFF79BFB0F4B04221A700837BD4680BD00BFA8
:401D800085A1FF1F88A1FF1FA4A1FF1FA7A1FF1F9CA1FF1FA6A1FF1FA9A1FF1F84A1FF1F00E100E00960004028600040086000401260004080B400AF0F4B00221A700F4B95
:401DC00000221A700E4B00221A700E4B00221A700D4B00221A700D4B00221A700C4B00221A700C4B03221A700B4B80221A70BD465DF8047B704700BF88A1FF1FA4A1FF1FA3
:401E0000A7A1FF1F9CA1FF1FA6A1FF1FA9A1FF1F84A1FF1F286000400860004080B400AF034B1B78DBB21846BD465DF8047B7047A7A1FF1F80B483B000AF0023FB71094BC5
:401E40001B78DBB2002B05D0064B1B78FB71054B00221A70FB7918460C37BD465DF8047B704700BFA4A1FF1F80B483B000AF0346FB71FA79064913465B0013449B000B44AF
:401E80005B78DBB218460C37BD465DF8047B7047ACA1FF1F80B485B000AF0346FB710023FB81FB79002B1BD0FB79082B18D8104AFB791B0113441B78DBB29BB203F00F03E8
:401EC000FB81FB891B029AB20949FB791B010B445B78DBB29BB21343FB81FB89023BFB81FB8918461437BD465DF8047B704700BFFC5F0040B0B485B000AF03463960FB71E1
:401F00001346BB80FB79002B66D0FB79082B63D8B988FA79324813465B0013449B000344DB889BB2C3F5007399420BD9FA792C4913465B0013449B000B44DB889BB2C3F55C
:401F40000073BB80274CF979BB881B0A9BB2D8B2FA79234D13465B0013449B002B44DB78DBB20343DAB20B0123441A701D4AFB79B988C9B21B0113440A465A703B68002BF6
:401F800013D00023FB810CE01748FB79FA8939680A4412781B01034408331A70FB890133FB81FA89BB889A42EED3FA790C4913465B0013449B000B4400225A700948F979B9
:401FC000FA79074C13465B0013449B0023445B79DAB20B0103449A701437BD46B0BC7047ACA1FF1FFC5F00407060004080B584B000AF03463960FB711346BB803B68002B02
:4020000030D0FB79002B2DD0FB79082B2AD8FB791846FFF73FFF03461A46BB88934205D9FB791846FFF736FF034600E0BB88BB800023FB810DE0FB893A6813440D49FA7940
:4020400012010A4408321278D2B21A70FB890133FB81FA89BB889A42EDD3FB79184600F00BF801E00023BB80BB8818461037BD4680BD00BF7060004090B482B000AF03462E
:40208000FB71FB79002B19D0FB79082B16D8FA790C4913465B0013449B000B4400225A700948F979FA79074C13465B0013449B0023445B79DAB20B0103449A700837BD4659
:4020C00090BC7047ACA1FF1FFC5F004080B582B000AF0023FB71324B1B79DBB2184600F069F80346BB712E4B1B78DBB2DBB25BB2002B16DA2A4B5B78DBB2212B00D00FE042
:40210000284B07221A80BA791346DB009B1A264A1344244A536000F059FB0346FB7100BF38E01F4B5B78DBB2202B02D0222B1AD030E01C4B07221A80BA791346DB009B1A21
:40214000194A1344174A5360BB79BA7917498A5CD2B242F00102D1B2144AD15400F0B6FB0346FB7116E0BB790D4A9278D2B291B20F4A22F81310BB79BA790C498A5CD2B2C1
:4021800042F00202D1B2094AD15400F03BFC0346FB7100BFFB7918460837BD4680BD00BF0060004090A1FF1F2881FF1F6CA1FF1F80A1FF1F80B485B000AF0346FB71002333
:4021C000FB73FF23BB7317E0FB7B104AD35C7B737A7B0F4913465B0013449B000B4408339B78DBB2FA799A4203D1FB7BBB730223FB73FB7B0133FB73FB7B012BE4D9BB7B19
:4022000018461437BD465DF8047B704774A1FF1FACA1FF1F80B582B000AF0023BB71224B00221A70214B00221A70204B00225A700023FB7110E0FB791D4AD35C7B717B7973
:40224000002B06D07B79082B03D87B791846FFF713FFFB790133FB71FB79012BEBD9154B1B78DBB2002B18D0114B1B78DBB2002B13D0114B1B78DBB2002B0ED00D4B1B78FC
:40228000DBB2082B09D80A4B1B78DBB2082B04D8094B1B78DBB2082B01D90123BB71BB7918460837BD4680BD1382FF1F6CA1FF1F78A1FF1F70A1FF1F74A1FF1F80B485B037
:4022C00000AF78600023FB8102E0FB890133FB81FB897A6813441B78002BF6D1FB8918461437BD465DF8047B704700BF80B584B000AF78600023BB81304B1B781A46304BAE
:402300009B5CFB727868FFF7D9FF0346FB81FA7A2C4913465B0013449B000B4408331B889BB2FA899A420AD9FA7A264913465B0013449B000B4408331B889BB200E0FB8914
:402340003B81BB897A681A44F97A3B89084611461A46FFF7CFFDFA893B89D31AFB81FB89002B0CD1FA7A174913465B0013449B000B4408331B889BB23A899A4218D1BA8924
:402380003B891344BB8100BFFA7A0E4913465B0013449B000B445B78DBB2002BF4D0FB89002B05D1FB7A184600210022FFF7A2FDFB89002BABD11037BD4680BD1382FF1F63
:4023C00070A1FF1FACA1FF1F80B500AF054B1B781A46054B9B5CDBB21846FFF745FD0346184680BD1382FF1F78A1FF1F80B500AF054B1B781A46054B9B5CDBB21846FFF795
:4024000033FD0346184680BD1382FF1F70A1FF1F80B582B000AF094B1B781A46084B9B5CFB71FA79BB1D104619460122FFF7DEFDBB7918460837BD4680BD00BF1382FF1F1C
:4024400078A1FF1F80B485B000AF78600B46FB701346BB707B68DB7803F00303FB737B689B78DBB25BB2002B1ADAFB7B032B0AD0BB7803F001031549FA78CA54BB7843F0AD
:402480000103BB701BE0BB789B08DBB203F001030F49FA78CA54BB7843F00403BB700EE0FB7B032B0BD0BB785B08DBB203F001030849FA78CA54BB7843F00203BB70BB78E7
:4024C00018461437BD465DF8047B704770A1FF1F74A1FF1F78A1FF1F80B582B000AF374B1B78BB71BB7903F01003002B63D00123FB71BB795BB2002B13DABB7903F00F03FB
:40250000012B02D00023FB711DE000F061F82C4B1B78DBB2DBB25BB2002B14DA0023FB7111E0BB7903F04003002B02D000F094F809E0BB7903F02003002B02D000F0B2F851
:4025400001E00023FB71FB79002B34D01B4B1B78BB71BB795BB2002B2DDB1A4B1B78DAB2194B1B78DBB21343BB71184ABB791370164B1B78DBB2BA799A421CD1104B1B78A1
:40258000FB710E4B1B78DBB223F07F03BB71BB79002B0AD1094B0A4A1278D2B21A70074B1B78DBB203F00F03FB71054B1B78DBB2FA799A42E2D10837BD4680BD286000405F
:4025C000A5A1FF1F1AA2FF1FA8A1FF1F2960004080B582B000AF1D4B1B78FB711B4AFB7913701A4B1B78FB71FB795BB2002B03DA174AFB79137025E0022000F043FA154B9B
:402600001B78DBB203F06003202B08D0402B0BD0002B0ED100F004FB0346FB710CE002F053F90346FB7107E001F0C0FA0346FB7102E00023FB7100BFFB79002B02D1044BF6
:4026400003221A700837BD4680BD00BF28600040A5A1FF1F0060004080B500AF104B1B78DBB2062B19D801A252F823F09B2600009B260000892600009B2600008F26000079
:402680009B2600009526000000F0FAF806E000F0A9F903E000F0D2F900E000BF80BD00BF88A1FF1F80B500AF124B1B78DBB2062B1DD801A252F823F0EF260000EF26000013
:4026C000D5260000EF260000DB260000EF260000E126000000F0DAF80AE000F029F907E0032000F0CFF9044B03221A7000E000BF80BD00BF88A1FF1FA5A1FF1F80B483B082
:4027000000AF0023FB71294B1B78DBB29AB2284B1B889BB213449AB2254B1A8015E02549FB79254A52681278D2B2CA54224B5B680133214A5360FB790133FB711E4B1B889D
:402740009BB2013B9AB21C4B1A801B4B1B889BB2002B02D0FB79072BE1D9144B1B78DBB2082B02D0FB79002B0FD0144B1B78DBB283F07F03DB43DAB2104B1A70104B0F223F
:402780001A70104B02221A7005E00D4B02221A700C4B02221A700C4AFB791370034AFB7913700C37BD465DF8047B704784A1FF1F86A1FF1F0060004090A1FF1F1AA2FF1FE3
:4027C000A5A1FF1F88A1FF1FA8A1FF1F80B582B000AF164B1B889BB2002B02D100F02EF81EE0134B02221A70124B00221A7000F069F9114BDB79DBB29BB21B029AB20E4B9B
:402800009B79DBB29BB21343FB80084B1B889BB2FA889A4202D2054AFB881380FFF76EFF012318460837BD4680BD00BF90A1FF1F88A1FF1F1AA2FF1F0060004080B400AFE9
:402840000A4B02221A700A4B80221A70094B0F221A70094B00221A70084B00221A7001231846BD465DF8047B704700BF88A1FF1F1AA2FF1FA5A1FF1F84A1FF1FA8A1FF1FC8
:4028800080B500AFFFF73AFF80BD00BF80B500AF0A4B1B78DBB29AB2094B1B889BB213449AB2074B1A80074B00221A70012000F0E9F8054B03221A7080BD00BF84A1FF1F63
:4028C00086A1FF1F88A1FF1FA5A1FF1F80B582B000AF124B04221A70114B80221A7000F0F1F8104BDB79DBB29BB21B029AB20D4B9B79DBB29BB21343FB800B4B1B889BB215
:40290000FA889A4202D2084AFB881380074B0B221A70012318460837BD4680BD88A1FF1F1AA2FF1F0060004090A1FF1FA5A1FF1F80B483B000AF0023BB71234B1B78DBB28C
:4029400003F00F03DBB2023BFB71FB799AB21F4B1B889BB213449AB21C4B1A8018E01C4B5B681C49BA798A5CD2B21A70184B5B680133174A5360BB790133BB71FB79013BFE
:40298000FB71134B1B889BB2013B9AB2104B1A800F4B1B889BB2002B02D0FB79002BDED10D4AFB7913700D4B1B78DBB283F07F03DB43DAB2094B1A70094B0B221A700C37BA
:4029C000BD465DF8047B70472960004086A1FF1F90A1FF1F00600040A8A1FF1F1AA2FF1FA5A1FF1F80B500AF044B00221A70012000F048F8024B03221A7080BD88A1FF1FF7
:402A0000A5A1FF1F80B400AF084B06221A70084B06221A70074B80221A70074B00221A7001231846BD465DF8047B704788A1FF1FA5A1FF1F1AA2FF1FA8A1FF1F80B500AFE9
:402A40000C4B1B78DBB2002B0AD00B4A094B1B78DBB263F07F03DBB21370064B00221A70064B00221A70012000F00CF8044B03221A7080BDA6A1FF1F0860004088A1FF1F8E
:402A8000A5A1FF1F80B483B000AF0346FB710B4B9B68002B0CD0094B9B68FA791A70074B9B68074A128892B25A80044B00229A600C37BD465DF8047B704700BF90A1FF1F8B
:402AC00086A1FF1F80B400AF094B00221A80094B9B68002B07D0074B9B6800221A70054B9B6800225A80BD465DF8047B704700BF86A1FF1F90A1FF1F80B400AF104A104B7C
:402B00001B78DBB223F00103DBB213700D4B9B7C0D4B1B7BDBB203F00303012B08D00A4BDB7BDBB283F07F03DB43DAB2064BDA73054B01225A73BD465DF8047B704700BF65
:402B40000B600040FC5F0040ACA1FF1F80B400AF104A104B1B78DBB223F00203DBB213700D4B93F822300D4B1B7EDBB203F00303012B08D0094BDB7EDBB283F07F03DB43C7
:402B8000DAB2064BDA76054B01225A76BD465DF8047B70470B600040FC5F0040ACA1FF1F80B400AF124A124B1B78DBB223F00403DBB213700F4B93F832300F4B93F8243000
:402BC000DBB203F00303012B0AD00B4B93F82730DBB283F07F03DB43DAB2074B83F82720054B012283F82520BD465DF8047B70470B600040FC5F0040ACA1FF1F80B400AF7C
:402C0000BD465DF8047B704780B500AFFFF7D2F880BD00BF80B500AF00F0E4FF80BD00BF80B586B000AF0023FB75AF4B1B78FB7100233B61AD4B00221A80FB795BB2002BEE
:402C400080F2FD80A84B5B78DBB20A2B00F2F58001A252F823F000BF932D00003B2E00003B2E00003B2E00003B2E00003B2E0000852C00003B2E0000052E00003B2E000034
:402C80001B2E0000984BDB78DBB2012B0ED100F017FEB860BB685B68944A5360934B12221A80FFF793FD0346FB7571E08E4BDB78DBB2022B24D18C4B9B78DBB2184600F08D
:402CC000D5FDB860BB68002B62D0BB685B68874A5360864B5B6803331B78DBB29BB21B029AB2824B5B6802331B78DBB29BB213439AB27E4B1A80FFF769FD0346FB759DE097
:402D0000794BDB78DBB2032B3DD10023FB73784B3B6109E03B691B78BB71BB793A6913443B61FB7B0133FB736F4B9B78DBB2FA7B9A4204D23B691B78DBB2002BEAD16A4BB5
:402D40009B78DBB2002B0BD0674B9B78DAB2694B1B7C9A4204D1684800F0A0F9664B3B613B691B78DBB2002B12D03B691B78DBB29AB25E4B1A805D4A3B695360FFF726FD9F
:402D80000346FB755AE001F09FFD0346FB7555E054E0FB7903F00303002B1FD0022B00D02FE0524B02221A804F4B1B79DBB203F07F02524913465B0013449B000B449B78B1
:402DC000DAB24F4B1A704E4B00225A70474B4C4A5A60FFF7FBFC0346FB7512E0434B02221A80484B1B78DAB2454B1A70444B00225A703E4B424A5A60FFF7E8FC0346FB752F
:402E000000BF1BE0394B01221A80384B3E4A5A60FFF7DCFC0346FB7510E0344B01221A80314B1B79DBB21A46384B13442F4A5360FFF7CCFC0346FB7500E000BF1AE12A4B96
:402E40005B78DBB2013B0A2B00F2138101A252F823F000BF5F2F000073300000E92F000073300000812E0000733000007330000073300000952E0000733000001B2F000008
:402E8000194B9B78DAB2224B1A70FFF7BBFD0346FB75EFE0144B9B787B717B79002B06D07B79013BDBB2184600F0E0FCB8607B79002B02D0BB68002B02D17B79002B2BD163
:402EC000114B1B78DBB27A799A4208D00E4A7B791370104B01221A70012000F0D7F9FFF791FD0346FB75C5E00060004090A1FF1F9CA9000044A9000020A2FF1FACA1FF1FA9
:402F00001482FF1FA9A1FF1FA7A1FF1F18A2FF1FA6A1FF1FA4A1FF1FACE000F00FFE0346002B1BD0564B1B793B71554B1B79DAB2544B1A703B79544AD35CDAB23B79534960
:402F4000CB5CDBB29A4204D0514B01221A7000F06FFBFFF757FD0346FB758BE08AE0FB7903F00303012B22D0012B0DD3022B00D039E0434B9B78DBB2002B04D100F046FD64
:402F80000346FB752FE02EE03D4B9B78DBB2012B0CD1404B1B78DBB223F00203DAB23D4B1A70FFF72FFD0346FB751CE01BE0344B1B79DBB2012B15D8314B9B78DBB2DB43E4
:402FC000DBB22F4A1279D2B211461046324A125CD2B21340DAB2304B5A54FFF713FD0346FB75FFE700BF45E0FB7903F00303012B22D0012B0DD3022B00D039E0204B9B78E5
:40300000DBB2002B04D100F093FC0346FB752FE02EE01B4B9B78DBB2012B0CD11D4B1B78DBB243F00203DAB21A4B1A70FFF7EAFC0346FB751CE01BE0114B1B79DBB2012B2F
:4030400015D80F4B9B78DBB2DB43DBB20C4A1279D2B211461046104A125CD2B21340DAB20D4B5A54FFF7CEFC0346FB75FFE700BF00E000BFFB7D18461837BD4680BD00BF9A
:40308000006000409CA1FF1F8CA1FF1F18A2FF1FA4A1FF1FA9A1FF1F1CA2FF1FB0B58AB000AF7860314B07F114041D460FCD0FC42B682370002387F826307B68002B52D039
:4030C0007B6822221A707B68013303221A7007F10C031846FEF7A0FC022387F827303EE097F827307A68134497F8262007F128010A4412F81C2C1209D2B207F128010A4487
:4031000012F8142C1A7097F8273001337A68134400221A7097F8273002337A68134497F8262007F128010A4412F81C2C02F00F0207F128010A4412F8142C1A7097F82730A6
:4031400003337A68134400221A7097F82630013387F8263097F82730043387F8273097F82730212BBCD92837BD46B0BDF890000090B482B000AF0123FB7174E03F4AFB792F
:403180001B0113440C221A70FA793D4913465B0013449B000B445B79DBB2002B1AD0FA79374913465B0013449B000B441B79DBB2DBB25BB2002B06DA324AFB791B0113446F
:4031C0000C229A700CE02F4AFB791B01134408229A7005E02B4AFB791B01134480229A702648F979FA79264C13465B0013449B002344DB889BB2DAB20B0103449A711F4857
:40320000F979FA791E4C13465B0013449B002344DB889BB21B0A9BB2DAB20B010344DA711648F979FA79164C13465B0013449B002344DB889BB2DAB20B0103441A710F48C3
:40324000F979FA790E4C13465B0013449B002344DB889BB21B0A9BB2DAB20B0103445A71FB790133FB71FB79082B87D9064BFF221A700837BD4690BC704700BF706000400B
:40328000ACA1FF1FFC5F00400A60004080B58AB000AF0346FB7100237B84002387F827304CE097F82720C44913465B0013449B000B4400221A7097F82720BF4913465B002E
:4032C00013449B000B4400229A7097F82720BA4913465B0013449B000B440022DA7097F82720B54913465B0013449B000B44083300221A8097F82720AF4913465B0013448E
:403300009B000B44083300229A7097F82720AA4913465B0013449B000B4400225A7097F82720A54913465B0013449B000B4400225A7197F82730013387F8273097F8273016
:40334000082BAED9FB79002B16D0002387F825300EE097F82530994A0021D15497F82530974A0021D15497F82530013387F8253097F82530012BECD9924B1B78DBB2002B28
:4033800000F050810023FB768E4B1B78DBB2013BDBB2184600F06AFA78617B695B683B613B6907331B7803F04003002B08D0864B1B78DBB243F00103DAB2834B1A7007E08B
:4033C000814B1B78DBB223F00103DAB27E4B1A707B6908337B617B691B7887F82730012387F82530B3E07B695B68FB61002387F82630A0E097F82520FB699B7803F07F03DD
:403400009A4240F0908097F825206B4913465B0013449B000B4408331B889AB2FB699B889A420CD297F82520FB699888624913465B0013449B000B44083302461A80FB690F
:403440001B781A465D4B9B5CDAB2FB695B789A4269D197F82520FB699878574913465B0013449B000B4402461A7197F82520FB69D878514913465B0013449B000B440246D2
:403480001A70FB69DB7803F00303FB73FB699B78DBB25BB2002B1ADA97F82520FB7B012B01D1072000E00D20434913465B0013449B000B4402465A7197F825203E49134670
:4034C0005B0013449B000B4401225A7019E097F82520FB7B012B01D1052000E00920364913465B0013449B000B4402465A7197F82520314913465B0013449B000B440022E8
:403500005A70FB699B790A2B03D0FB699B79022B09D197F82520FB7EF86911461A46FEF791FF0346FB76FB690833FB6197F82630013387F8263097F8262097F827309A429E
:40354000FFF458AF97F82530013387F8253097F82530082B7FF647AF7B695B68FB61002387F8253016E0FB699B7803F07F02FB691878114913465B0013449B000B4408338A
:4035800002469A70FB690833FB6197F82530013387F8253097F8252097F827309A42E2D300F0A0F90246094B1A6000237B84012387F8273030E000BFACA1FF1F18A2FF1FBA
:4035C0008CA1FF1FA7A1FF1FA9A1FF1FA0A1FF1F97F82720154913465B0013449B000B447A8CDA8097F82720104913465B0013449B000B4408331B889AB27B8C13447B841F
:403600007B8C03F001039AB27B8C13447B8497F82730013387F8273097F82730082BD7D9FFF7A6FD2837BD4680BD00BFACA1FF1F90B585B000AF874B1B78DBB2002B00F092
:403640000681844B1B78DBB2013BDBB2184600F00DF978607B6808337B607B681B78FB707B685B68BB607C4B1B78BB700023FB73E8E0BB681B78BA789A4240F0DD80BB78E2
:40368000764AD35CDAB2BB685B789A4240F0D480BB689B7803F07F037B70BB68DB7803F003033B707A786E4913465B0013449B000B440022DA707A78BB6898786849134650
:4036C0005B0013449B000B4402461A717A78BB68D878634913465B0013449B000B4402461A707A78BB6898885D4913465B0013449B000B44083302461A80BB689B78DBB2D3
:403700005BB2002B18DA7A783B78012B01D1072000E00D20524913465B0013449B000B4402465A717A784E4913465B0013449B000B4401225A7017E07A783B78012B01D1E0
:40374000052000E00920464913465B0013449B000B4402465A717A78414913465B0013449B000B4400225A703E4A7B781B01134401229A703B4879787A78394C13465B006D
:4037800013449B00234408331B889BB21B0A9BB2DAB20B0103441A70324879787A78304C13465B0013449B00234408331B889BB2DAB20B0103445A702B4879787A78284C26
:4037C00013465B0013449B002344DB889BB2DAB20B0103449A71244879787A78204C13465B0013449B002344DB889BB21B0A9BB2DAB20B010344DA711B4879787A78184C64
:4038000013465B0013449B002344DB889BB2DAB20B0103441A71144879787A78104C13465B0013449B002344DB889BB21B0A9BB2DAB20B0103445A71BB680833BB60FB7BFE
:403840000133FB73FA7BFB789A42FFF412AF1437BD4690BDA7A1FF1F9CA1FF1F18A2FF1FACA1FF1FFC5F00407060004080B485B000AF0346FB71104B1B78DBB20F4ADB0068
:4038800013445B68FB60FB681033FB60FB681B78FA799A4202D30023FB6005E0FB79DB00FA6813445B68FB60FB6818461437BD465DF8047B704700BF85A1FF1F9CAA00000C
:4038C00080B400AF054B1B78DBB2054ADB0013445B681846BD465DF8047B704785A1FF1F9CAA000080B584B000AF104B1B78DBB2013BDBB21846FFF7B9FFB860BB68002BED
:403900000DD0BB685B681B79FB71FB790233DB00BA681344BB60BB685B68FB6001E00023FB60FB6818461037BD4680BDA7A1FF1F80B582B000AF0023FB71314B1B79DBB21C
:4039400003F07F03BB71BB79002B53D0BB79082B50D8BA79B9792B480B465B000B449B0003449B78DBB243F00103D8B2254913465B0013449B000B4402469A70BA7921492D
:4039800013465B0013449B000B440022DA70BA79B9791C480B465B000B449B0003445B78DBB243F00203D8B2164913465B0013449B000B4402465A70BA79124913465B0036
:4039C00013449B000B441B79DBB2DBB25BB2002B06DA0D4ABB791B0113448D229A7005E0094ABB791B01134489229A70FFF70AF80346FB71FB7918460837BD4680BD00BFB8
:403A000000600040ACA1FF1FFC5F004080B582B000AF0023FB71464B1B79DBB203F07F03BB71BB79002B7DD0BB79082B7AD8BA79B97940480B465B000B449B0003449B78A6
:403A4000DBB223F00103D8B23A4913465B0013449B000B4402469A70BA79364913465B0013449B000B440022DA70334ABB791B0113447F221A70BA79B9792E480B465B0065
:403A80000B449B0003445B78DBB223F00203D8B2284913465B0013449B000B4402465A70BA79244913465B0013449B000B441B79DBB2DBB25BB2002B18DABA791D491346FC
:403AC0005B0013449B000B445B78DBB2012B06D1194ABB791B0113440C229A701EE0164ABB791B0113440D229A7017E0BA79114913465B0013449B000B445B78DBB2012B42
:403B000006D10D4ABB791B01134408229A7005E0094ABB791B01134409229A70FEF772FF0346FB71FB7918460837BD4680BD00BF00600040ACA1FF1FFC5F004080B584B02E
:403B400000AF0023FB73154B1B79BB73144B1B78DBB2013BDBB21846FFF788FEB860BB685B681B79FB71BA7BFB799A4202D9BB7B022B0ED8BB7BBA7B0A498A5CD1B20A4A9F
:403B8000D154BB7B054A9278D1B2064AD1540123FB73FB7B18461037BD4680BD00600040A7A1FF1F18A2FF1F8CA1FF1F80B483B000AF0023FB710A4B1B78DBB2DBB25BB28F
:403BC000002B06DA064B5B78DBB2012B00D000E000BFFB7918460C37BD465DF8047B70470060004080B400AF054B1B78DBB203F040039B09DBB21846BD465DF8047B704785
:403C00008F45004080B500AF00F054F9022000F0A9F9082000F0E6F9002000F0C3F9FDF7D5FD03461A46084B1A70FDF7CFFD03461A46064B1A700648642100F063F80548DD
:403C4000642100F097F880BD1B82FF1F1C82FF1F0C9100007091000080B500AF00F04EF9074B1B7818460121FDF75CFC054B1B7818460121FDF756FC002000F0D3F980BD60
:403C80001982FF1F1A82FF1F80B500AF054B1B78002B04D1FFF7B6FF024B01221A70FFF7DBFF80BD1882FF1F80B584B000AFF8607A601A460B467B8113463B817B89F868F0
:403CC000194600F01FF83B897868194600F052F8FFF7DAFF1037BD4680BD00BF80B500AF064B1B781846FDF763FC054B1B781846FDF75EFC00F01CF980BD00BF1982FF1F4A
:403D00001A82FF1F80B582B000AF78600B467B807B681B0C9BB2012001211A464FF4804300F060F803461A46104B1A70104B19780F4B1B787A88084611461A460123FDF7C1
:403D400073FD0B4B1A787B689BB21046194645F68132FDF7A9FD054B1A78054B1B7810461946FDF7C5FC0837BD4680BD1982FF1F1B82FF1F80B582B000AF78600B467B8022
:403D80007B681B0C9BB2012001211A464FF4804300F05CF803461A46104B1A70104B19780F4B1B787A88084611461A460123FDF73BFD0B4B1A787B689BB21046194645F6F9
:403DC0008132FDF771FD054B1A78054B1B7810461946FDF78DFC0837BD4680BD1A82FF1F1C82FF1F90B585B002AF0446084611461A462346FB710346BB710B46BB80134619
:403E00007B80114B02221A700F4B1878F979BA7900230093002301930023FDF787FC0A4B1978BA887B88084611461A46FDF722FC054B1B7818460221FDF7ECFB024B1B7886
:403E400018460C37BD4690BD4481FF1F90B585B002AF0446084611461A462346FB710346BB710B46BB8013467B80114B03221A700F4B1878F979BA790023009300230193C3
:403E80000023FDF753FC0A4B1978BA887B88084611461A46FDF7EEFB054B1B7818460221FDF7B8FB024B1B7818460C37BD4690BD4581FF1F80B500AF0D4B10221A700D4B7F
:403EC00000221A700B4A0B4B1B78DBB243F00403DBB21370084A084B1B78DBB243F00803DBB21370022000F03DF800F0ABF880BD24580040255800408F5A004080B400AF52
:403F0000094A094B1B78DBB243F00203DBB21370064A064B1B78DBB243F00203DBB21370BD465DF8047B7047A8430040B843004080B400AF094A094B1B78DBB223F00203B3
:403F4000DBB21370064A064B1B78DBB223F00203DBB21370BD465DF8047B7047A8430040B843004080B483B000AF0346FB710C4A0B4B1B78DBB223F00203DBB21370084944
:403F8000074B1B78DAB2FB7903F00203DBB21343DBB20B700C37BD465DF8047B704700BF2458004080B582B000AF0346FB710C4A0B4B1B78DBB223F00403DBB213700849DB
:403FC000074B1B78DAB2FB7903F00403DBB21343DBB20B7000F036F80837BD4680BD00BF2558004080B582B000AF0346FB710C4A0B4B1B78DBB223F00C03DBB213700849C4
:40400000074B1B78DAB2FB7903F00C03DBB21343DBB20B7000F016F80837BD4680BD00BF2458004080B483B000AF0346FB71044AFB7913700C37BD465DF8047B704700BF16
:40404000815B004080B483B000AF104B1B78DBB203F00C035B08FB710D4B1B78DBB203F00403DBB2002B02D0FB790133FB71094AFB7903F1924303F598731B78DBB213707C
:404080000C37BD465DF8047B704700BF24580040255800400946004080B500AF00F056F9022000F0ABF9082000F0E8F9002000F0C5F9FDF78BFB03461A46094B1A70FDF7D3
:4040C00085FB03461A46074B1A7007484FF47A6100F064F805484FF4FA6100F097F880BD2082FF1F2182FF1FD491000074A1000080B500AF00F04EF9074B1B7818460121E0
:40410000FDF710FA054B1B7818460121FDF70AFA002000F0D3F980BD1E82FF1F1F82FF1F80B500AF054B1B78002B04D1FFF7B4FF024B01221A70FFF7DBFF80BD1D82FF1F5C
:4041400080B584B000AFF8607A601A460B467B8113463B817B89F868194600F01FF83B897868194600F052F8FFF7DAFF1037BD4680BD00BF80B500AF064B1B781846FDF7FD
:4041800017FA054B1B781846FDF712FA00F01CF980BD00BF1E82FF1F1F82FF1F80B582B000AF78600B467B807B681B0C9BB2012001211A464FF4804300F060F803461A4604
:4041C000104B1A70104B19780F4B1B787A88084611461A460123FDF727FB0B4B1A787B689BB21046194645F68332FDF75DFB054B1A78054B1B7810461946FDF779FA083797
:40420000BD4680BD1E82FF1F2082FF1F80B582B000AF78600B467B807B681B0C9BB2012001211A464FF4804300F05CF803461A46104B1A70104B19780F4B1B787A8808468B
:4042400011461A460123FDF7EFFA0B4B1A787B689BB21046194645F68332FDF725FB054B1A78054B1B7810461946FDF741FA0837BD4680BD1F82FF1F2182FF1F90B585B093
:4042800002AF0446084611461A462346FB710346BB710B46BB8013467B80114B00221A700F4B1878F979BA7900230093002301930023FDF73BFA0A4B1978BA887B8808460B
:4042C00011461A46FDF7D6F9054B1B7818460221FDF7A0F9024B1B7818460C37BD4690BD4681FF1F90B585B002AF0446084611461A462346FB710346BB710B46BB801346F4
:404300007B80114B01221A700F4B1878F979BA7900230093002301930023FDF707FA0A4B1978BA887B88084611461A46FDF7A2F9054B1B7818460221FDF76CF9024B1B7809
:4043400018460C37BD4690BD4781FF1F80B500AF0D4B10221A700D4B00221A700B4A0B4B1B78DBB243F00403DBB21370084A084B1B78DBB243F00803DBB21370022000F030
:404380003DF800F0ABF880BD2C5800402D5800409F5A004080B400AF094A094B1B78DBB243F00803DBB21370064A064B1B78DBB243F00803DBB21370BD465DF8047B7047A1
:4043C000A8430040B843004080B400AF094A094B1B78DBB223F00803DBB21370064A064B1B78DBB223F00803DBB21370BD465DF8047B7047A8430040B843004080B483B035
:4044000000AF0346FB710C4A0B4B1B78DBB223F00203DBB213700849074B1B78DAB2FB7903F00203DBB21343DBB20B700C37BD465DF8047B704700BF2C58004080B582B050
:4044400000AF0346FB710C4A0B4B1B78DBB223F00403DBB213700849074B1B78DAB2FB7903F00403DBB21343DBB20B7000F036F80837BD4680BD00BF2D58004080B582B03F
:4044800000AF0346FB710C4A0B4B1B78DBB223F00C03DBB213700849074B1B78DAB2FB7903F00C03DBB21343DBB20B7000F016F80837BD4680BD00BF2C58004080B483B010
:4044C00000AF0346FB71044AFB7913700C37BD465DF8047B704700BF835B004080B483B000AF104B1B78DBB203F00C035B08FB710D4B1B78DBB203F00403DBB2002B02D007
:40450000FB790133FB71094AFB7903F1924303F59C731B78DBB213700C37BD465DF8047B704700BF2C5800402D5800400B46004080B400AF094A094B1B78DBB243F00203A1
:40454000DBB21370064A064B1B78DBB243F00203DBB21370BD465DF8047B7047A2430040B243004080B584B000AF03460A46FB8013467B7100F0B2F80346FB7300F0A2F8EE
:404580000346BB81FA88BB899A4200F08780454B1B78DBB203F00203FB72FB7B002B20D1BB89002B02D0FB88002B1AD1BB89002B0BD13D4AFB8813803C4A3C4B1B78DBB247
:4045C00023F04003DBB2137068E0384A374B1B78DBB243F04003DBB21370334AFB8813805CE0FB7A002B33D0314B00221A70314B02221A70304B00221A70304A2F4B1B78F1
:40460000DBB203F07F03DBB21370284B1B78DBB203F00803002B02D0FB88002B18D1284ABB891380224B07221A7000BF204B1B78DBB203F00103002BF8D11A4A194B1B784A
:40464000DBB223F00203DBB21370194B00221A70144B1B78DBB203F00203002B13D0184AFB881380124A7B79002B01D0032300E00123137000BF0E4B1B78DBB203F0010350
:40468000002BF8D10AE0084AFB8813800549054B1B78DAB2FB7A1343DBB20B701037BD4680BD00BFA243004084400040864000400140004010400040144000400840004082
:4046C0000240004080B400AF034B1B889BB21846BD465DF8047B70478440004080B400AF054B1B78DBB203F00703DBB21846BD465DF8047B704700BF8640004080B400AFB6
:40470000094A094B1B78DBB243F00103DBB21370064A064B1B78DBB243F00103DBB21370BD465DF8047B7047A2430040B243004080B584B000AF03460A46FB8013467B710A
:4047400000F0B2F80346FB7300F0A2F80346BB81FA88BB899A4200F08780454B1B78DBB203F00103FB72FB7B002B20D1BB89002B02D0FB88002B1AD1BB89002B0BD13D4AEE
:40478000FB8813803C4A3C4B1B78DBB223F04003DBB2137068E0384A374B1B78DBB243F04003DBB21370334AFB8813805CE0FB7A002B33D0314B00221A70314B01221A709B
:4047C000304B00221A70304A2F4B1B78DBB203F07F03DBB21370284B1B78DBB203F00803002B02D0FB88002B18D1284ABB891380224B07221A7000BF204B1B78DBB203F02E
:404800000103002BF8D11A4A194B1B78DBB223F00103DBB21370194B00221A70144B1B78DBB203F00103002B13D0184AFB881380124A7B79002B01D0032300E0012313706C
:4048400000BF0E4B1B78DBB203F00103002BF8D10AE0084AFB8813800549054B1B78DAB2FB7A1343DBB20B701037BD4680BD00BFA243004080400040824000400140004045
:404880001040004014400040084000400240004080B400AF034B1B889BB21846BD465DF8047B70478040004080B400AF054B1B78DBB203F00703DBB21846BD465DF8047BAB
:4048C000704700BF8240004080B582B000AF1A4B1B78DBB203F00303012B02D0022B04D012E0154B1B79BB7111E0134B1B79DBB203F07F02114913465B0013449B000B4468
:4049000008339B78BB7102E00023BB7100BF0C4B1A68BB7913441B78022B04D1FDF7D6FB0346FB7102E00023FB7100BFFB7918460837BD4680BD00BF00600040ACA1FF1F4F
:40494000A0A1FF1F30B5224A21F00043934287B01BDD204A934205DD02460B4601F044F907B030BD02AA00F037F800F0030001281ED0022811D010B3DDE90201DDE904234A
:4049800000F03EFA01F10041EAE7002300930022002300F05DFF07B030BD01230093DDE90201DDE9042300F053FF01F10041D7E7DDE90201DDE9042300F022FAD0E70124A2
:4049C000DDE90201DDE90423009400F041FFC7E7FB21E93FFFFFEF7F2DE9F04F924C21F00047A7428FB00E467FDD14468F4A974226DC83A3D3E90023002940F39D8101F0FE
:404A0000F3F88B4B80469F42894600F083807EA3D3E9002301F0E8F802460B464046C4E90023494601F0E0F877A3D3E9002301F0DBF80125C4E9020128460FB0BDE8F08F50
:404A40007C4A974240F383807B4A974258DC3D15A5F21645A7EB05518B46824601F012FD01F010FA8046894642464B4650465946CDE9088901F0B8F80022704B01F068FAD4
:404A80008B46824601F0FEFC01F0FCF98046894642464B4650465946CDE90A8901F0A4F80022664B01F054FA00220023CDE90C0101F0B6FC002800F06781002340464946DE
:404AC000002201F0ADFC002814BF012302235C480221019000912A4608A8214600F0B4FA002EC0F24781054606E0C2E9000100250024C2E90245002528460FB0BDE8F08F72
:404B000002460B4601F070F80025C4E90201C4E90001F1E73EA3D3E9002301F065F83EA3D3E9002306460F4601F05EF802460B463046C4E90023394601F056F836A3D3E940
:404B4000002301F051F80125C4E90201D4E700F037FF33A3D3E900238046894601F0F8F90022384B01F042F801F08CFC054601F089F923A3D3E90023CDE9040101F0E8F9BC
:404B800002460B464046494601F02EF81EA3D3E9002382468B46DDE9040101F0D9F91F2DCDE902015046594650DC274B6A1E53F82230BB424AD0DDE9022301F015F8024624
:404BC0000B4681468846C4E900234A4643465046594601F009F8DDE9022301F005F802460B46002EC4E9022386DA4A4608F1004301F1004184E80C00E160A0606D427BE724
:404C000000004054FB21F93F3163621A61B4D03D0000601A61B4D03D7370032E8A19A33B83C8C96D305FE43FFB21E93F7BD90240FB21F93FFB213941FFFFEF7F0000704115
:404C400024AB00000000E03FA4AA0000DDE9022300F0CAFF88463F15C8F30A53FB1A102B8146C4E90001B0DD59A3D3E90023DDE9040101F06DF98046894642464B46504687
:404C8000594600F0B1FFCDE90601DDE906235046594600F0A9FF42464B4600F0A5FF4EA3D3E9002380468946DDE9040101F050F942464B4600F098FFCDE90201DDE90223E1
:404CC000DDE9060100F090FF0B4602468846C1F30A517F1A312F8146C4E9002374DD40A3D3E90023DDE9040101F032F980468946DDE9060142464B4600F076FF82468B46EF
:404D0000DDE9060152465B4600F06EFF42464B4600F06AFF34A3D3E9002380468946DDE9040101F015F942464B4600F05DFFCDE90201504659463EE700F058FF2E4B80468B
:404D40009F42894622D02AA3D3E9002300F04EFF02460B464046C4E90023494600F044FF23A3D3E9002300F041FF4FF0FF35C4E90201C1E66268E36802F1004203F10043D7
:404D800045426260E360B7E60323A0E610A3D3E9002300F02BFF10A3D3E9002306460F4600F024FF02460B463046C4E90023394600F01AFF08A3D3E9002300F017FF4FF0F6
:404DC000FF35C4E9020197E6DDE906ABFDE600BF0000601A61B4D03D7370032E8A19A33B0000002E8A19A33BC14920259A837B393163621A61B4D03DFB21F93FAFF3008091
:404E00002DE9F04F21F00047B7F1795F85B00C4692469B4605466BDA01F034FB002800F0E7802A4623462846214601F091F874A3D3E900238046894601F08AF872A3D3E9DF
:404E4000002300F0D3FE42464B4601F081F870A3D3E9002300F0C8FE42464B4601F078F86DA3D3E9002300F0C1FE42464B4601F06FF86BA3D3E9002300F0B6FE42464B46F0
:404E800001F066F868A3D3E9002300F0AFFE42464B4601F05DF8CDE90001404649460022634B01F055F8DDE9002306460F464046494601F04DF85246804689465B462846D2
:404EC000214601F045F802460B464046494600F08BFE02460B463046394600F085FE02460B460020534900F07FFE05B0BDE8F08F02460B4601F02CF841A3D3E90023804623
:404F0000894601F025F840A3D3E9002300F06EFE42464B4601F01CF83DA3D3E9002300F063FE42464B4601F013F83BA3D3E9002300F05CFE42464B4601F00AF838A3D3E989
:404F4000002300F051FE42464B4601F001F836A3D3E9002300F04AFE4B46424600F0F8FF354BCDE900019F4297DD344B00229F4238DCA7F5001300202E4916461F4600F0C3
:404F800033FECDE90201404649460022284B00F0DFFF32463B4600F027FEDDE9002306460F464046494600F0D3FF5246804689465B462846214600F0CBFF02460B464046A4
:404FC000494600F011FE02460B463046394600F00BFE02460B46DDE9020100F005FE05B0BDE8F08F164B0026CDE90223154FCAE71049002005B0BDE8F08F00BFAFF30080C4
:40500000D43888BEE9FAA8BDC4B1B4BD9EEE213EAD529C804F7E923E9015CB19A001FA3E7751C1166CC1563F4C5555555555A53F0000E03F0000F03F3233D33F0000E93FC4
:405040000000E73F0000D23F2DE9F04F9E467E4DD41E85FB0465E417C4EBA504ADF51D7D24EAE4742546A69E0D940C93E343774C03EB430354F8264002EBC30327460994AA
:405080000EF1FF3426460394F41904900A910893A5EB060516D42C44013422AEA79F08E057F8250000F0EEFE0135A542E6E9020108D0002DF4DA013500200021A542E6E97D
:4050C0000201F6D1099B002B31DB099A0C9B74A901EBC20BC3EB4373039A24A9DB0001EBC20800930DF5E479039B002BC0F297814446049B0026A3F1080A009B002708EB5D
:405100000305FAE9022374E8020100F021FF02460B463046394600F069FDAC4206460F46EFD1E9E90267D94508F10808DCD1099B10A99B4603F18043013B9B001A1D0A445D
:405140000B440F920E934FEACB039CA91A460693BBF1000F0B4453E9284528DD0DF5E87A0AEB02060FAF0022394B2046294600F0EFFE01F087F900F085FE0022354B8046DE
:40518000894600F0E5FE02460B462046294600F02BFD01F077F976E9022347F8040F4946404600F023FD564504460D46DBD1DDF82090204629464A4600F092FC00224FF0BE
:4051C0007F5304460D4600F0C3FE00F0FDFB0022214B00F0BDFE02460B462046294600F003FD04460D4601F04DF9804600F04AFE02460B46204629464C4600F0F5FC002C31
:4052000006460F4640F3F1800BF1FF3110AB53F82130C9F1180043FA00F202FA00F55D1B10A8C9F1170340F8215090441D41002D3FDDBBF1000F08F1010840F38482002274
:4052400014460FA912E000BFABAAAA2A2CAC00000000703E0000704100002040C3F180700BB108600124013293450DDD51F8043F002CF3D0C3F1FF13013203F57F439345C3
:405280000B604FF00104F1DC089B002B0EDD012B00F0B380022B09D10BF1FF3210AB53F8223010A9C3F3150341F82230022D00F08380304639460022002301F0B1F80028AE
:4052C00000F0C980099B0BF1FF3A53450DDC10AB0F9803EB8B03002253F8041D834242EA0102F9D1002A40F01482099B10AA013B52F82330002B40F024820E9A012352F8B3
:40530000041D01330029FAD05B441A460B930BF1010393424DDC0D9A4FF0000803EB02090B9A0C9B09F180495B44CBEB020BA79A09F1FF3902EB890200924FEACB02DB00D4
:40534000059224AA02EB030B0793069B74AA02EB030A009B002653F8040F0027009300F091FD039BEBE80201002B1BDB079B03EB0804069B08EB030524AB1C441D44049B27
:40538000A3F10809F9E9022374E8020100F0E0FD02460B463046394600F028FCAC4206460F46EFD1059B08F108089845EAE90267CFD1DDF82CB0C6E632463B460020BF4944
:4053C00000F012FC06460F46002C3FF472AF089A0020BA4900F084FB02460B463046394600F002FC06460F4663E711D10BF1FF3310AA52F82350ED1519E70BF1FF3210AB82
:4054000053F8223010A9C3F3160341F822304DE70022AB4B01F022F858B9054649E700260027E9E90267D94508F108087FF45CAE7DE6BBF1000F08F10108C8BF02253FF7A9
:40544000FEAE32463B4600209C4900F0CDFB022506460F462DE7089B30465A4239460395CDF8148000F03CFB0022964B04460D4600F0F4FF002800F0E1810022924B204640
:40548000294600F065FD00F0FDFF064600F0FAFC00228C4B00F05CFD0B4602462946204600F0A2FB00F0EEFF089B0BF1010A1833089310AB43F82B0043F82A60089A0020BB
:4054C0007E4900F00DFBBAF1000F04460D46C0F2CA800AF101034FEAC30874AF10AA009302EB830907EB080659F8040D00F0CAFC22462B4600F02CFD002266E90201724B73
:405500002046294600F024FDBE4204460D46EBD1A8F1080806EB08039B460DF59879CDF818A0DDF824A04FF00008CDF81090BAF1000FC0F29580B8F1000FC0F29180DFF8FE
:405540008C915D4600260027002401E0444510DCF9E90223F5E8020100F0FAFC02460B463046394600F042FB0134A24506460F46ECDA049BABF1080B03EBC803C3E900677F
:40558000009B08F101089845D1D1A69BDDF818A0DDF81090032B3BD8DFE813F0410004000400D70000273E46009B09EBC304384674E90223314600F019FB4C4507460E46B3
:4055C000F5D1039B002B00F08B80D9E900010A9D334606F100463A466E602F6000F004FBBAF1000F03460CDD01261C46F9E90223204600F0FBFA0136B2450346F5DA039A8B
:405600000AB101F100411C460D460A9BC3E90245059B03F007000DF51D7DBDE8F08F00231946009A09EBC2091C4679E90223204600F0DCFA0AF1FF3ABAF1FF3F0346F3D1BB
:40564000039A0AB101F100411C460D460A9BC3E90045059B03F007000DF51D7DBDE8F08F0026002785E7A69B032BD1D8DFE803F04E3030020DF59879039A00231E46002A5E
:4056800000F0C8800A9FD9F80800D9F80440D9F80C203B61059BD9F8001006F1004604F1004402F10042B86003F007007E617C60FA6039600DF51D7DBDE8F08F0000F03FA7
:4056C0000000E03F000070410000703E38AC0000039B00273E460DF59879002B7FF475AFD9E9000135463C4633460A9E3A46C6E9004500F079FABAF1000F03463FF774AF16
:405700001C460D460A9BC3E9024581E70023194696E7089A10AB53F82A30183A0395CDF814800892002B7FF4C9AE10AB03EB8A0353F8041D0AF1FF3A183A0029F8D008920E
:40574000BCE60123E0E500249EE5BAF1000F93DD4FEACA0809EB08039B46D3E900677BE9022330463946CDE9002300F03FFA04460D46DDE9000122462B4600F035FA02469B
:405780000B463046394600F031FACB4526462F46CBE90201CBE90045E1D1BAF1010F7FF76BAF09EB08039A46D3E900670DF59C7B7AE902231046194632463B46CDE90001E2
:4057C00000F014FA04460D46DDE9000122462B4600F00AFA32463B4600F008FADA4526462F46CAE90201CAE90045E1D100231E4608F108044C4450AD184674E902233146BF
:4058000000F0F4F9AC4203460E46F5D1039A002A7FF438AFD9E90045D9E90289184631460A9A059BC2E9040103F00700C2E90045C2E902890DF51D7DBDE8F08F2046294647
:4058400000F020FE10ABDA4643F82B0036E600BF2DE9F04F21F00046B6F1795F85B00C4690469946054604DA00F00CFE002800F083802A4623462846214600F069FB2A46E7
:40588000234606460F4600F063FB3FA3D3E9002382468B463046394600F05AFB3CA3D3E9002300F0A1F932463B4600F051FB3AA3D3E9002300F09AF932463B4600F048FB14
:4058C00037A3D3E9002300F08FF932463B4600F03FFB35A3D3E9002300F088F90E9BCDE900019BB3404649460022334B00F030FBDDE90023CDE902015046594600F028FBC4
:4059000002460B46DDE9020100F06EF932463B4600F01EFB42464B4600F066F924A3D3E9002306460F465046594600F011FB02460B463046394600F059F902460B462846F5
:40594000214600F051F905B0BDE8F08FDDE900233046394600F0FCFA15A3D3E9002300F043F952465B4600F0F3FA2A46234600F03DF905B0BDE8F08F2846214605B0BDE809
:40598000F08F00BFAFF300807CD5CF5A3AD9E53DEB9C2B8AE6E55A3E7DFEB157E31DC73ED561C119A0012A3FA6F810111111813F495555555555C53F0000E03FAFF30080BF
:4059C00021F00041704700BF2DE9F047C1F30A58A8F2FF36132E0B4604460D460246894607461DDC002E40DBDFF8F08048FA06F808EA010E5EEA020217D035A3D3E9002366
:405A000000F0F4F80022002300F032FD20B1002D40DB29EA0805002738462946BDE8F087332E06DDB6F5806F2FD020461946BDE8F087A8F213424FF0FF3A2AFA02FA1AEA74
:405A4000000FF2D022A3D3E9002300F0CFF80022002300F00DFD0028DED0002D1FDB4D4627EA0A0738462946D8E719A3D3E9002300F0BCF80022002300F0FAFC0028CBD030
:405A8000002D1ADB00273D46C6E702460B4600F0ADF8CCE74FF4801333419944B9E7142E08D0C8F5866808F10308012303FA08F31F19D4D309F10109D1E725F00042064B9D
:405AC000224318BF1D460027A6E700BFAFF300809C7500883CE4377E0000F0BFFFFF0F00F8B5C1F30A5604460D460B46174616BB21F00043034332D00022314B00F028FA1F
:405B0000304A044697420D460B4637DB40F2FE72C1F30A56363E3E44964215DD24A1D1E9000122462B4600F053F821A3D3E9002300F00EFAF8BD40F2FF72964224D040F217
:405B4000FE723E449642E9DC002E09DD23F0FF4323F4E00343EA065520462946F8BDF8BD16F1350F15DA4CF250339F42D6DC12A1D1E9000122462B4600F02AF80EA3D3E918
:405B8000002300F0E5F9F8BD02460B4600F02EF8F8BD23F0FF4323F4E003363643EA0655204629460022084B00F0D2F9F8BD00BF9C7500883CE4377E59F3F8C21F6EA50178
:405BC00000005043B03CFFFF0000903CAFF3008003F0004321F0004243EA0201704700BF81F0004102E000BF83F0004330B54FEA41044FEA430594EA050F08BF90EA020F3A
:405C00001FBF54EA000C55EA020C7FEA645C7FEA655C00F0E2804FEA5454D4EB5555B8BF6D420CDD2C4480EA020281EA030382EA000083EA010180EA020281EA0303362D85
:405C400088BF30BD11F0004F4FEA01314FF4801C4CEA113102D0404261EB410113F0004F4FEA03334CEA133302D0524263EB430394EA050F00F0A780A4F10104D5F1200E8E
:405C80000DDB02FA0EFC22FA05F2801841F1000103FA0EF2801843FA05F359410EE0A5F120050EF1200E012A03FA0EFC28BF4CF0020C43FA05F3C01851EBE37101F00045A8
:405CC00007D54FF0000EDCF1000C7EEB00006EEB0101B1F5801F1BD3B1F5001F0CD349085FEA30004FEA3C0C04F101044FEA445212F5800F80F09A80BCF1004F08BF5FEAC7
:405D0000500C50F1000041EB045141EA050130BD5FEA4C0C404141EB010111F4801FA4F10104E9D191F0000F04BF01460020B1FA81F308BF2033A3F10B03B3F120020CDA9E
:405D40000C3208DD02F1140CC2F10C0201FA0CF021FA02F10CE002F11402D8BFC2F1200C01FA02F120FA0CFCDCBF41EA0C019040E41AA2BF01EB0451294330BD6FEA0404AF
:405D80001F3C1CDA0C340EDC04F11404C4F1200220FA04F001FA02F340EA030021FA04F345EA030130BDC4F10C04C4F1200220FA02F001FA04F340EA0300294630BD21FAE9
:405DC00004F0294630BD94F0000F83F4801306BF81F480110134013D4EE77FEA645C18BF7FEA655C29D094EA050F08BF90EA020F05D054EA000C04BF1946104630BD91EA3D
:405E0000030F1EBF0021002030BD5FEA545C05D14000494128BF41F0004130BD14F580043CBF01F5801130BD01F0004545F0FE4141F470014FF0000030BD7FEA645C1ABFEC
:405E4000194610467FEA655C1CBF0B46024650EA013406BF52EA033591EA030F41F4002130BD00BF90F0000F04BF0021704730B54FF4806404F132044FF000054FF00001B3
:405E800050E700BF90F0000F04BF0021704730B54FF4806404F1320410F0004548BF40424FF000013EE700BF42004FEAE2014FEA31014FEA02701FBF12F07F4393F07F4F32
:405EC00081F06051704792F0000F14BF93F07F4F704730B54FF4607401F0004521F0004120E700BF50EA010208BF704730B54FF000050AE050EA010208BF704730B511F0A4
:405F0000004502D5404261EB41014FF4806404F132045FEA915C3FF4DCAE4FF003025FEADC0C18BF03325FEADC0C18BF033202EBDC02C2F1200300FA03FC20FA02F001FA91
:405F400003FE40EA0E0021FA02F11444C1E600BF70B54FF0FF0C4CF4E06C1CEA11541DBF1CEA135594EA0C0F95EA0C0F00F0DEF82C4481EA030621EA4C5123EA4C5350EA01
:405F8000013518BF52EA033541F4801143F4801338D0A0FB02CE4FF00005E1FB02E506F00042E0FB03E54FF00006E1FB03569CF0000F18BF4EF0010EA4F1FF04B6F5007F60
:405FC00064F5407404D25FEA4E0E6D4146EB060642EAC62141EA55514FEAC52040EA5E504FEACE2EB4F1FD0C88BFBCF5E06F1ED8BEF1004F08BF5FEA500E50F1000041EB5B
:40600000045170BD06F0004646EA010140EA020081EA0301B4EB5C04C2BFD4EB0C0541EA045170BD41F480114FF0000E013C00F3AB8014F1360FDEBF002001F0004170BD04
:40604000C4F10004203C35DA0C341BDC04F11404C4F1200500FA05F320FA04F001FA05F240EA020001F0004221F0004110EBD37021FA04F642EB06015EEA430E08BF20EA4A
:40608000D37070BDC4F10C04C4F1200500FA04F320FA05F001FA04F240EA020001F0004110EBD37041F100015EEA430E08BF20EAD37070BDC4F1200500FA05F24EEA020E24
:4060C00020FA04F301FA05F243EA020321FA04F001F0004121FA04F220EA020000EBD3705EEA430E08BF20EAD37070BD94F0000F0FD101F00046400041EB010111F4801F49
:4061000008BF013CF7D041EA060195F0000F18BF704703F00046520043EB030313F4801F08BF013DF7D043EA0603704794EA0C0F0CEA135518BF95EA0C0F0CD050EA41065D
:4061400018BF52EA4306D1D181EA030101F000414FF0000070BD50EA410606BF1046194652EA430619D094EA0C0F02D150EA013613D195EA0C0F05D152EA03361CBF1046D4
:4061800019460AD181EA030101F0004141F0FE4141F470014FF0000070BD41F0FE4141F4780170BD70B54FF0FF0C4CF4E06C1CEA11541DBF1CEA135594EA0C0F95EA0C0F54
:4061C00000F0A7F8A4EB050481EA030E52EA03354FEA013100F088804FEA03334FF0805545EA131343EA12634FEA022245EA111545EA10654FEA00260EF000419D4208BF11
:40620000964244F1FD0404F5407402D25B084FEA3202B61A65EB03055B084FEA32024FF480104FF4002CB6EB020E75EB030E22BFB61A754640EA0C005B084FEA3202B6EB90
:40624000020E75EB030E22BFB61A754640EA5C005B084FEA3202B6EB020E75EB030E22BFB61A754640EA9C005B084FEA3202B6EB020E75EB030E22BFB61A754640EADC0023
:4062800055EA060E18D04FEA051545EA16754FEA06164FEAC30343EA52734FEAC2025FEA1C1CC0D111F4801F0BD141EA00014FF000004FF0004CB6E711F4801F04BF014383
:4062C0000020B4F1FD0C88BFBCF5E06F3FF6AFAEB5EB030C04BFB6EB020C5FEA500C50F1000041EB045170BD0EF0004E4EEA113114EB5C04C2BFD4EB0C0541EA045170BD1F
:4063000041F480114FF0000E013C90E645EA060E8DE60CEA135594EA0C0F08BF95EA0C0F3FF43BAF94EA0C0F0AD150EA01347FF434AF95EA0C0F7FF425AF104619462CE78A
:4063400095EA0C0F06D152EA03353FF4FDAE1046194622E750EA410618BF52EA43067FF4C5AE50EA41047FF40DAF52EA43057FF4EBAE12E74FF0FF3C06E000BF4FF0010C37
:4063800002E000BF4FF0010C4DF804CD4FEA410C7FEA6C5C4FEA430C18BF7FEA6C5C1BD001B050EA410C0CBF52EA430C91EA030F02BF90EA020F0020704710F1000F91EADF
:4063C000030F58BF994208BF90422CBFD8176FEAE37040F0010070474FEA410C7FEA6C5C02D150EA013C07D14FEA430C7FEA6C5CD6D152EA033CD3D05DF8040B704700BF61
:406400008446104662468C461946634600E000BF01B5FFF7B7FF002848BF10F1000F01BD4DF808EDFFF7F4FF0CBF012000205DF808FB00BF4DF808EDFFF7EAFF34BF012049
:4064400000205DF808FB00BF4DF808EDFFF7E0FF94BF012000205DF808FB00BF4DF808EDFFF7CEFF94BF012000205DF808FB00BF4DF808EDFFF7C4FF34BF012000205DF807
:4064800008FB00BF4FEA410212F5001215D211D56FF47873B3EB625212D94FEAC12343F0004343EA505311F0004F23FA02F018BF404270474FF00000704750EA013005D124
:4064C00011F0004008BF6FF0004070474FF00000704700BF4A0011D212F5001211D20DD56FF47873B3EB62520ED44FEAC12343F0004343EA505323FA02F070474FF0000094
:40650000704750EA013002D14FF0FF3070474FF000007047014B1868704700BFAC81FF1F0E4B70B51E460E4C0025E41AA410A54204D056F8253098470135F8E704F014FD54
:40654000084B094C1E46E41AA4100025A54204D056F8253098470135F8E770BD74AF000074AF000074AF00007CAF000010B5431E0A44914204D011F8014B03F8014FF8E78B
:4065800010BD814210B501EB020301D3421E0BE09842FBD28118D21AD34204D013F8014D01F8014DF8E710BD994204D011F8014B02F8014FF8E710BD03460244934202D0E5
:4065C00003F8011BFAE770472DE9F0471E4688B0149F002BB8BF06F10043129927F02007B6BF1E4600232D23462F1446109DDDF84CA00B7003D0452F03D1013501E003232F
:4066000000E002238DE8280406AB039307AB04932246334600F058FD472F804602D1119BDB0726D5462F08EB050911D198F80030302B0AD12046314600220023FFF7F0FE12
:4066400018B9C5F10105CAF80050DAF8003099442046314600220023FFF7E2FE08B1CDF81C90079B4B4504D25A1C079230221A70F7E74046079B159AC8EB0303136008B0EE
:40668000BDE8F087034673B50029B8BF494203F8022BB4BF2D222B22092942701ADD0DF1070426460A2291FBF2F502FB1511092D01F1300104F8011D2946F3DC3031651E44
:4066C00004F8011CB5421A460AD215F8012B03F8012BF7E71A463024214402F8024B5970101A02B070BD00002DE9F04F91B08B4615461E461A9F044601F0A2FAD0F800A0C0
:40670000504600F04FFC00230E933B680990073323F0070303F108029BF818803A60D3E90023CBE91223DBE9120100F0B9FB0128DBE9120119D100220023FFF77BFE10B1CC
:406740002D238BF84330A04BA04FB8F1470F88BF1F460323CBF81030DBF8003023F00403CBF800304FF00009A1E000F099FBDBF8003048B9964A974FB8F1470F88BF17465B
:406780000322CBF81020E9E7DBF80420DBE91201571CCDE90A0101D1062209E0B8F1670F02D0B8F1470F05D1002A40F0C7810122CBF80420DBF8042043F480638DE80C0008
:4067C000CBF800300DF1330302930DAB03930EAB059300230693CDF81080DDE90A232046FFF7F2FE08F0DF03472B07460AD10D9BD81C03DBDBF80420934237DDA8F102087D
:406800005FFA88F8B8F1650F0D9915D8013942460BF150000D91FFF735FF0E9A81468318012ACBF8103003DCDBF80020D10738D50133CBF8103034E0B8F1660F18D100298F
:40684000DBF8043009DDCBF810101BB9DBF80020D20721D501330B441CE01BB9DBF80020D00701D5023315E0012313E04FF067080D9B0E9A934207DBDBF80020CBF81030D3
:40688000D10709D5013305E0002BD4BFC3F1020301231344CBF810300D9B4FF00009CBF858309DF8333013B12D238BF843300096204659460FAA2B4600F05CF9013002D1C9
:4068C0004FF0FF3052E1DBF800305A0505D4204629463A46DBF8103008E1B8F1650F40F2D080DBE9120100220023FFF799FD50B320462946384A0123B0470130E0D00E9B25
:406900000D9A9A4209DBDBF80030D80705D4DBF800309F0700F1108107E1204629465246099BB0470130CBD000270E9B013B9F42EDDA204629460BF11A020123B047013061
:40694000BED00137F1E70D9B002B29DC20462946214A0123B0470130B2D00D9B2BB90E9B1BB9DBF80030D907D1D5204629465246099BB0470130A3D04FF000080D9B204600
:406980005B429845294608DA0BF11A020123B047013095D008F10108F0E73A460E9BA5E0DBF858200E9B9A42A8BF1A46002A914602DC4FF000081CE0204629463A464B461D
:4069C000B0470130F5D17BE787AD000083AD00008FAD00008BAD000002AF0000204629460BF11A020123B04701303FF469AF08F10108DBF85830B9F1000FB4BF1A46C9EB9D
:406A000003029045EADB07EB03080D9A0E9B9A4210DBDBF80030DA070CD40E9A1744C8EB07030D9FD21B9342A8BF1346002B1F4608DC0EE0204629465246099BB047013056
:406A4000EBD13DE7204629464246B04701303FF437AF4FF000080AE0204629460BF11A020123B04701303FF42BAF08F101080D9A0E9B002FA3EB0203A8BFDB1B9845EBDB0D
:406A800045E70E9A012A01DCDB0736D5204629463A460123B04701303FF412AF204629465246099BB04701303FF40AAFDBE9120100220023FFF7B4FCE8B90E9B2046294672
:406AC0007A1C013B1DE0204629460BF11A020123B04701303FF4F4AE01370E9B013B9F42F1DB204629464B460BF15002B04701307FF40DAFE4E60027EFE7204629463A46C8
:406B00000123B0470130ECD1DAE6204629460BF119020123B04701303FF4D2AE0137DBF80C300F9A9B1A9F42EFDBDBF80C000F9B9842B8BF184619E00027F0E743F4806308
:406B40008DE80C00CBF800300DF1330302930DAB03930EAB059300230693CDF810802046DDE90A23FFF730FD074640E611B0BDE8F08F00BF2DE9F84391461F468A680B69A2
:406B800006469342B8BF1346C9F8003091F843200C46DDF8208012B10133C9F800302368990642BFD9F800300233C9F80030256815F006051CD094F843302268003318BFEA
:406BC000012392061FD5E118302081F843005A1C94F845102244023382F8431013E03046394604F119020123C047013007D00135E368D9F800209B1A9D42F0DBDBE74FF024
:406C0000FF30BDE8F8833046394604F14302C0470130F4D02268D9F80050E36802F00602042A08BF5D1B2269A3680CBF25EAE57500259342C4BF9B1AED184FF00009A94546
:406C40000ADA3046394604F11A020123C0470130D5D009F10109F2E70020BDE8F88300002DE9FF410C461746227E98466E2A06460A9B01F1430100F0B08012D8632A23D040
:406C80000AD8002A00F0BD80582A40F0CC8084F84520DFF804E257E0642A1ED0692A1CD0C1E0732A00F0B18009D86F2A2ED0702A40F0B980226842F0200222603FE0752AD5
:406CC00024D0782A3BD0AEE01A6804F14205111D1960136884F84230A9E020681A6810F0800F02D0101D186008E010F0400F02F10400186002D0B2F9003000E01368002B25
:406D00003EDA2D225B4284F8432039E020681A6810F0800F02D0101D186007E010F0400F02F10400186001D0138800E01368227EDFF864E16F2A0CBF08220A221CE07822CF
:406D4000DFF858E184F845202268186812F0800F00F104051D6003D1550601D5038800E00368D00744BF42F0200222601BB9226822F0200222601022002084F8430002E07E
:406D8000DFF814E10A226568002DA8BF2068A560A4BF20F00400206003B965B10D46B3FBF2F002FB10331EF8033005F8013D03460028F4D100E00D46082A0BD12368DA079A
:406DC00008D5236962689A42DEBF302305F8013C05F1FF35491B21612EE025681A6815F0800F606903D0151D1D60136808E015F0400F02F104051D60136801D0188000E05A
:406E00001860002323610D4616E01A68111D1960156800212846626800F01EFF08B1401B6060636804E004F1420584F8422001232361002384F84330CDF800803046214665
:406E400003AA3B46FFF796FE013002D14FF0FF301FE0304639462A462369C0470130F5D023689B0705D4E068039B9842B8BF18460FE00025E368039A9B1A9D42F3DA30468D
:406E8000394604F119020123C0470130DED00135F0E704B0BDE8F08193AD0000A4AD000031F0004310B51BD00F4AA1F58014944210D901F1FF410C4A01F5E001914209D967
:406EC000B3F5801F08D3094A934207D1B0FA80F0400910BD042010BD032010BD002010BD0028E6D1022010BDFFFFDF7F0000F07F0EB400B54FF402719CB0ADF814106FF038
:406F00000041049107914FF6FF711DABADF81610084953F8042B02900690086802A9019301F088FA029B00221A701CB05DF804EB03B07047AC81FF1F0EB430B59CB01FACBA
:406F40004FF4017254F8045BADF814200290069000F028F80B4B03900B9300230F9314934FF6FF73ADF81630074B079002A918682A462346019401F0A9FB1CB0BDE8304012
:406F800003B070478D6F0000AC81FF1F0020704710F8012B11F8013B012A28BF9A42F7D0D01A7047034613F8012B002AFBD1181A013870472DE9F74F03690C698046A342FA
:406FC0007EDB013C01F114074FEA840E00F1140606EB0E0357F82450019356F824300135B3FBF5F507EB0E09BDB34FF0000A3846B446D34650F8043B9AB21B0C02FB05A25E
:407000006B4303EB124392B2C2EB0B0BBCF800204FEA134A5A441FFA83FBDCF800304845CBEB134303EB224392B242EA03424FEA234B4CF8042BDDD956F80E306BB9019BF8
:40704000043BB3421A4602D8C8F8104005E01268043B002AF8D1013CF3E7404601F01BF800282BDB304601354FF0000E57F8042B036891B2C1EB0E0E120C99B27144C2EB7A
:40708000134303EB214389B24FEA234E4F4541EA034340F8043BE9D956F8242006EB840362B9043BB3421A4602D8C8F8104005E01268043B002AF8D1013CF3E7284600E06C
:4070C000002003B0BDE8F08F2DE9F04F456A95B08246219CCDE9022345B9102000F0B4FDCAF82400456085600560C560DAF82430196859B15A68012393404A608B60504692
:4071000000F0EDFDDAF8243000221A60039BA24A002BBDBF01232360039B0023BCBF23F000430393039FA8BF236027F000431B0D1B0593421DD142F20F73209A1360029B42
:4071400043B9964A964BC7F31300002814BF1846104600E09248229B002B00F06985C37813B100F1080300E0C31C229A136000F05FBDDDE902450022204629460023FFF744
:407180004FF9804658B1209A01231360229B002B00F03C8583481860013800F049BD13AB009312AB0193504622462B4600F0EEFFC7F30A5607905EB1C5F3130343F07F51DD
:4071C000204641F44011A6F2FF36CDF844801DE0139B129E1E446FF482639E42A1BF029A06F2124322FA03F06F4BB7BF6F4B9B1B029A9B1BAABF9F4002FA03F03843FEF777
:4072000031FE0123A1F1F871013E11930022684BFEF7EAFC5AA3D3E90023FEF799FE5AA3D3E90023FEF7E2FC044630460D46FEF729FE57A3D3E90023FEF78AFE02460B4638
